:100000005BC4000075C4000073C4000071C400002C
:100010006FC400006DC400006BC4000069C4000020
:1000200067C400000C946E290C94592C0C94222D5A
:100030005FC400005DC400005BC4000059C4000040
:1000400057C400000C94A01453C4000051C4000015
:100050004FC400004DC400004BC400000C94C218F3
:1000600047C4000045C4000043C4000041C4000070
:100070003FC400003DC400003BC4000039C4000080
:1000800037C4000035C4000033C4000031C4000090
:100090002FC400002DC400002BC4000029C40000A0
:1000A00027C4000025C4000023C400005B0A3F0AE7
:1000B0004A0B980A980A980AB80A3F0A3F0A4A0B5C
:1000C000C20A4A0BC70AE30AF10A4A0B4A0B4A0B57
:1000D000080B1E0B340B780B8E0B150CBB0C150C80
:1000E000BB0CC60C060D7B197E1981198419871962
:1000F0008A198D1990199319961999199C199F1994
:10010000391B3C1B3F1B421B451B481B4B1BB51C93
:10011000CB1CB81CBB1CBE1CC11CC41CC71C3E1F76
:100120003E1F3E1F531F661F6F1F781F811F8A1FB0
:10013000A11FAC1FB51FBE1FC71FD61FE71FF61F8D
:100140000920182021202A2033203E203F2E612E16
:10015000472F612E472FA32EC62E472F182F2A2F49
:10016000084AD73B3BCE016E84BCBFFDC12F3D6C1E
:1001700074319ABD56833DDA3D00C77F11BED9E484
:10018000BB4C3E916BAAAABE000000803F05A84C64
:10019000CDB2D44EB93836A9020C50B99186880830
:1001A0003CA6AAAA2ABE000000803F000D0A272410
:1001B0002720746F2064756D702063757272656E90
:1001C000742073657474696E67730D0A000D0A00FC
:1001D0000D0A4772626C003E0D0A002C0057506FEA
:1001E000733A002C002C4D506F733A003C43686505
:1001F000636B003C416C61726D003C486F6D650043
:100200003C486F6C64003C52756E003C51756575DE
:1002100065003C49646C65000D0A003D00244E00F9
:100220005D0D0A00204600205400204D3500204D71
:100230003400204D3300204D3200204D3100204D40
:100240003000204739340020473933002047393106
:10025000002047393000204732310020473230003B
:1002600020473139002047313800204731370020FE
:1002700047005B473830005B4733005B4732005B29
:100280004731005B4730005D0D0A002C005B4739A9
:10029000323A005D0D0A002C0033303A0032383A11
:1002A0000035393A0035383A0035373A0035363AB4
:1002B0000035353A0035343A005B47002028686F36
:1002C0006D696E672070756C6C2D6F66662C206D85
:1002D0006D290D0A002028686F6D696E67206465BE
:1002E000626F756E63652C206D736563290D0A243A
:1002F00032323D002028686F6D696E672073656536
:100300006B2C206D6D2F6D696E290D0A2432313DE5
:10031000002028686F6D696E6720666565642C2013
:100320006D6D2F6D696E290D0A2432303D00290D47
:100330000A2431393D002028686F6D696E6720649A
:10034000697220696E76657274206D61736B2C2002
:10035000696E743A002028686F6D696E6720637952
:10036000636C652C20626F6F6C290D0A2431383D57
:1003700000202868617264206C696D6974732C2098
:10038000626F6F6C290D0A2431373D002028696E99
:1003900076657274207374657020656E61626C6539
:1003A0002C20626F6F6C290D0A2431363D00202805
:1003B0006175746F2073746172742C20626F6F6C3E
:1003C000290D0A2431353D0020287265706F727442
:1003D00020696E636865732C20626F6F6C290D0A4B
:1003E0002431343D0020286E2D646563696D616C95
:1003F000732C20696E74290D0A2431333D002028A6
:100400006E2D61726320636F7272656374696F6EC3
:100410002C20696E74290D0A2431323D0020286198
:1004200072632C206D6D2F7365676D656E74290D79
:100430000A2431313D0020286A756E6374696F6E3D
:1004400020646576696174696F6E2C206D6D290D6D
:100450000A2431303D002028616363656C65726158
:1004600074696F6E2C206D6D2F7365635E32290D7C
:100470000A24393D002028737465702069646C6516
:100480002064656C61792C206D736563290D0A24E5
:10049000383D00290D0A24373D002028737465700B
:1004A00020706F727420696E76657274206D61734E
:1004B0006B2C20696E743A00202864656661756C47
:1004C00074207365656B2C206D6D2F6D696E290D21
:1004D0000A24363D00202864656661756C742066C8
:1004E0006565642C206D6D2F6D696E290D0A2435AC
:1004F0003D002028737465702070756C73652C2026
:1005000075736563290D0A24343D0020287A2C2058
:10051000737465702F6D6D290D0A24333D002028FA
:10052000792C20737465702F6D6D290D0A24323D6E
:10053000002028782C20737465702F6D6D290D0AAA
:1005400024313D0024303D0024242028766965773D
:10055000204772626C2073657474696E6773290D2D
:100560000A24232028766965772023207061726130
:100570006D6574657273290D0A24472028766965B4
:100580007720706172736572207374617465290DD0
:100590000A244E2028766965772073746172747519
:1005A0007020626C6F636B73290D0A24783D76614D
:1005B0006C7565202873617665204772626C2073C4
:1005C000657474696E67290D0A244E783D6C696EF6
:1005D000652028736176652073746172747570206C
:1005E000626C6F636B290D0A24432028636865637E
:1005F0006B2067636F6465206D6F6465290D0A2445
:100600005820286B696C6C20616C61726D206C6F76
:10061000636B290D0A2448202872756E20686F6D5F
:10062000696E67206379636C65290D0A7E202863F3
:1006300079636C65207374617274290D0A21202816
:100640006665656420686F6C64290D0A3F20286325
:10065000757272656E7420737461747573290D0AF6
:100660006374726C2D7820287265736574204772EC
:10067000626C290D0A000D0A416E616C6F67204F94
:10068000757470757420496E697469616C697A65F6
:10069000640D0A000D0A4772626C20302E38632008
:1006A0005B27242720666F722068656C705D0D0AD9
:1006B000005D0D0A0044697361626C656400456EFB
:1006C00061626C65640043617574696F6E3A2055B0
:1006D0006E6C6F636B656400272448277C27245861
:1006E0002720746F20756E6C6F636B0052657365A5
:1006F0007420746F20636F6E74696E7565005B00A3
:100700002E204D506F733F0D0A0041626F727420AE
:10071000647572696E67206379636C650048617205
:1007200064206C696D697400414C41524D3A20005F
:100730000D0A004C696E65206F766572666C6F7786
:1007400000416C61726D206C6F636B004275737950
:10075000206F722071756575656400454550524F74
:100760004D2072656164206661696C2E2055736945
:100770006E672064656661756C74730056616C7594
:1007800065203C203320757365630056616C756588
:10079000203C20302E300053657474696E672064ED
:1007A000697361626C656400496E76616C6964208E
:1007B00073746174656D656E74004D6F64616C2057
:1007C00067726F75702076696F6C6174696F6E0007
:1007D000496E76616C696420726164697573005555
:1007E0006E737570706F7274656420737461746574
:1007F0006D656E7400457870656374656420636F21
:100800006D6D616E64206C65747465720042616424
:10081000206E756D62657220666F726D6174006521
:1008200072726F723A20006F6B0D0A001C034C004D
:1008300055004600410020004300440043002000D2
:10084000440065006D006F0000001803440065005F
:1008500061006E002000430061006D0065007200C1
:10086000610000000403090409023E00020100C007
:10087000FA0904000001020201000524001001042D
:100880002402060524060001070582030800FF096B
:10089000040100020A000000070504021000050719
:1008A0000583021000051201100102000008412317
:1008B000368001000102DC0111241FBECFEFDAE017
:1008C000DEBFCDBF11E0A0E0B1E0E0EDFCE602C08C
:1008D00005900D92A032B107D9F726E0A0E2B1E071
:1008E00001C01D92A238B207E1F703D00C9466361E
:1008F00087CB0E9477110E9455200E94E4187894BB
:1009000080E1EAEFF5E0DF011D928A95E9F781E0E9
:100910008093FA058093FB05C1E08091FA05882356
:1009200011F10E94DA110E94A72364D40E94EC11F5
:100930000E9454290E94D1180E942A291092FA0577
:100940001092FC058091620681FDC093090680919A
:10095000FB05863021F482E00E94C21904C0109287
:10096000FB050E94F1110E940E120E949811D5CF32
:100970004F925F926F927F928F92AF92BF92CF927F
:10098000DF92EF92FF920F931F93CF93DF93CDB738
:10099000DEB728970FB6F894DEBF0FBECDBF2B0190
:1009A0003C0129833A834B835C83ED82FE820F8373
:1009B00018878091FB058730C1F10E940E1280914B
:1009C000FA05811132C00E94D1238111F6CFED804A
:1009D000FE800F81188529813A814B815C81C3019A
:1009E000B2010E94E8238091FB05811103C082E0DF
:1009F0008093FB05809109068823B9F028960FB6ED
:100A0000F894DEBF0FBECDBFDF91CF911F910F9144
:100A1000FF90EF90DF90CF90BF90AF908F907F903E
:100A20006F905F904F900C940D1928960FB6F89424
:100A3000DEBF0FBECDBFDF91CF911F910F91FF9011
:100A4000EF90DF90CF90BF90AF908F907F906F909E
:100A50005F904F9008952F923F924F925F926F92C6
:100A60007F928F929F92AF92BF92CF92DF92EF923E
:100A7000FF920F931F93CF93DF93CDB7DEB7EB9722
:100A80000FB6F894DEBF0FBECDBF3C017A8F698FE1
:100A90002A012F8F0DA3EFA2A9A2BAA2CBA2DCA29A
:100AA00089A634E0239F80011124400F511F5BA7CA
:100AB0004AA7DA018D909D90AD90BC90FC01E00FAB
:100AC000F11F2081318142815381C501B4010E940F
:100AD0004E316CA77DA78EA79FA7EDA1B4E0EB9F39
:100AE000100111249201220D331D39AB28ABD9011D
:100AF000CD90DD90ED90FC90F301E20DF31D20818F
:100B0000318142815381C701B6010E944E316AABE7
:100B10007BAB8CAB9DABEFA1B4E0EB9FC00111248C
:100B2000F301E80FF91F20813181428153812D8B20
:100B30003E8B4F8B588FE98DFA8DE80FF91F60813E
:100B40007181828193810E944D316B8F7C8F8D8F5B
:100B50009E8F2401350177FA709477F87094D7014D
:100B6000C601B0588D879E87AF87B88BE98DFA8D07
:100B7000E00FF11F2CA53DA54EA55FA560817181F9
:100B8000828193810E944D316B017C01E98DFA8D48
:100B9000E20DF31D2AA93BA94CA95DA960817181D1
:100BA000828193810E944D314B015C01A701960126
:100BB000C301B2010E94FC34698B7A8B8B8B9C8BB6
:100BC000A50194016D857E858F8598890E94FC34EE
:100BD0009B01AC0169897A898B899C890E944E317D
:100BE000698B7A8B8B8B9C8BA5019401C301B2011D
:100BF0000E94FC344B015C01A70196016D857E8546
:100C00008F8598890E94FC349B01AC01C501B40119
:100C10000E944D3129893A894B895C890E94C131F2
:100C20006B017C0165968FAD659720E030E0A901EE
:100C3000882379F0C701B6010E942A3487FD19C0C4
:100C40002BED3FE049EC50E4C701B6010E944D3165
:100C50000EC0C701B6010E942732181654F02BEDC2
:100C60003FE049EC50E4C701B6010E944E316B01F0
:100C70007C0164962CAD3DAD4EAD5FAD6497C70170
:100C8000B6010E94FC342B8D3C8D4D8D5E8D0E94F3
:100C900037344B015C0120E030E0A9010E9427328B
:100CA000882309F4A6C12091560630915706409139
:100CB000580650915906C501B4010E942E320E9477
:100CC00004330E949B327FAB6EAB4B01A12CB12C45
:100CD00099A5992381F0C501B4010E94C7329B01F7
:100CE000AC0169A17AA18BA19CA10E94FC3469A3EB
:100CF0007AA38BA39CA3C501B4010E94C7324B0108
:100D00005C019B01AC01C701B6010E942E32698BC8
:100D10007A8B8B8B9C8BA50194016B8D7C8D8D8D3B
:100D20009E8D0E942E3268AF79AF8AAF9BAF20E0D4
:100D300030E040E05FE369897A898B899C890E9471
:100D4000FC3429893A894B895C890E94FC349B01D7
:100D5000AC0160E070E080E89FE30E944D316B8F52
:100D60007C8F8D8F9E8FE1E0F0E0EC0FFD1FBFA127
:100D7000A4E0BA9FE00DF11D11242D893E894F8911
:100D8000588D2083318342835383912C22242394D2
:100D9000312C41E050E04C0F5D1F9F8D84E0989F07
:100DA000400D511D112458A74FA3A1E0B0E0AC0F96
:100DB000BD1F3DA124E0329FA00DB11D1124BEA393
:100DC000ADA3F8A3EF8FEEA9FFA92E163F0608F0FA
:100DD000F8C08091740690E0292D092C000C330B8B
:100DE00028173907F4F52B8D3C8D4D8D5E8D6D8563
:100DF0007E858F8598890E94FC346B017C0129894E
:100E00003A894B895C89C301B2010E94FC34A70175
:100E100096010E944E317B018C012B8D3C8D4D8DB6
:100E20005E8DC301B2010E94FC342B013C01298973
:100E30003A894B895C896D857E858F8598890E946A
:100E4000FC349B01AC01C301B2010E944D312B0166
:100E50003C019394C701D8018D879E87AF87B88BDB
:100E600064C0B10180E090E00E94C73229893A89CC
:100E70004B895C890E94FC346B017C010E942B32FF
:100E80006D877E878F87988BC701B6010E947F355B
:100E90004B015C01AAA5BBA5CD90DD90ED90FC9027
:100EA000F7FAF094F7F8F094A8A9B9A92D913D911B
:100EB0004D915C912D8B3E8B4F8B588FA7019601E6
:100EC0006D857E858F8598890E94FC342B013C01BD
:100ED0002D893E894F89588DC501B4010E94FC348B
:100EE0009B01AC01C301B2010E944E312B013C01B8
:100EF000A7019601C501B4010E94FC346B017C017D
:100F00002D893E894F89588D6D857E858F8598897D
:100F10000E94FC349B01AC01C701B6010E944D3117
:100F20006D877E878F87988B912C2CA53DA54EA52C
:100F30005FA5C301B2010E944E31EFA1F8A5608305
:100F40007183828393832AA93BA94CA95DA96D85EE
:100F50007E858F8598890E944E31ADA1BEA16D938B
:100F60007D938D939C93139728AD39AD4AAD5BADBE
:100F7000EF8DF8A160817181828193810E944E3151
:100F8000AF8DB8A16D937D938D939C931397E98456
:100F9000FA840B851C852D813E814F81588569819E
:100FA0007A818B819C8189A4A9A0BAA0CBA0DCA066
:100FB000DFDC8091FA0581111CC0BFEF2B1A3B0AC0
:100FC00002CFA98DBA8D1896ED90FD900D911C91D0
:100FD0001B9714962D913D914D915C9117976D91B2
:100FE0007D918D919C9189A4A9A0BAA0CBA0DCA0F1
:100FF000BFDCEB960FB6F894DEBF0FBECDBFDF911E
:10100000CF911F910F91FF90EF90DF90CF90BF9005
:10101000AF909F908F907F906F905F904F903F9098
:101020002F9008958F929F92AF92BF92CF92DF92AE
:10103000EF92FF924B015C0120E030E040EA51E486
:101040000E94FC340E9404330E949B326B017C019D
:101050000E94D92320E030E04AE754E4C501B401FE
:101060000E94FC344B015C0182E38C9DB0018D9D9C
:10107000700D112480E090E00E94C7329B01AC010A
:10108000C501B4010E944D310E9404330E949B327D
:10109000CB010E941F29C114D10499F00E940E12A5
:1010A00021E0C21AD1088091FA0581110AC08FEFA0
:1010B00090E722E0815090402040E1F700C000001E
:1010C000EACFFF90EF90DF90CF90BF90AF909F90CE
:1010D0008F9008958F92AF92BF92CF92DF92EF924E
:1010E000FF920F931F9385E08093FB0580916B0027
:1010F00080936B000E940E128091FA05811134C01A
:101100008CE0EDEFF5E0DF011D928A95E9F70E9492
:101110002A291092FB0520E030E0A90160916E06BB
:1011200070916F0680917006909171060E94FC3458
:10113000A0906806B0906906C0906A06D0906B06D1
:10114000812C7B018C019B01AC0112DC0E940D19EA
:101150000E94D9230E942A298091620683FF04C03D
:1011600080916B0080936B001F910F91FF90EF9027
:10117000DF90CF90BF90AF908F9008958091FC0545
:1011800084FD11C08091FC0580618093FC058091F5
:10119000FB058350833038F48091FC058062809396
:1011A000FC050C9488140895FC01D9018C91DA0196
:1011B000A80FB11D9C919923B9F0908391549A3155
:1011C00020F082E080930A060FC0F901CA01AB014A
:1011D00020812F5F2083BF010E946D28009739F482
:1011E00021E020930A06089580E090E0089581E0D0
:1011F00090E0089585E3EAE0F6E0DF011D928A952C
:10120000E9F780914D0690914E06A0914F06B0915E
:1012100050068093120690931306A0931406B09381
:10122000150681E08093240692E090932506809332
:101230000E0667E276E080E00E94EB1E811103C09B
:101240008AE00C94651908958F929F92AF92BF9295
:10125000CF92DF92EF92FF920F931F93CF93DF9382
:1012600049015A0167017801CAE0D6E00E94C932FB
:101270000FE316E0F80120813181428153810E9401
:101280002E326C877D878E879F87C501B4010E94AF
:10129000C932F80124813581468157810E942E325E
:1012A000688B798B8A8B9B8BC701B6010E94C932F0
:1012B000F80120853185428553850E942E326C8B42
:1012C0007D8B8E8B9F8BDF91CF911F910F91FF9024
:1012D000EF90DF90CF90BF90AF909F908F90089548
:1012E0002F923F924F925F926F927F928F929F9236
:1012F000AF92BF92CF92DF92EF92FF920F931F9324
:10130000CF93DF93CDB7DEB7E5970FB6F894DEBF86
:101310000FBECDBF2091FB05263009F408C69DAB5A
:101320008CAB1AA6FE0179968CE0DF01282F1D9266
:101330002A95E9F73C97DF011D928A95E9F710920B
:101340000A06212C312C412C512CCC24C394D12CB5
:1013500045E0742E01E052E0F52E63E0E62E74E0E5
:10136000672E9E01265D3F4F4CA95DA9BE016B5DB6
:101370007F4FCE01899618DF892B09F46AC08DA0B2
:101380009EA0AFA0B8A4C501B4010E94CA350E94B6
:101390009632CB0129A5273421F02D3409F449C018
:1013A000E0CF6E31710509F4C6C5E4F4643171050E
:1013B0008CF4613171050CF0C0C56430710509F41D
:1013C000BAC51CF477FF2DC0CCC66A30710509F48C
:1013D000B2C5C7C66631710544F16C31710509F0BB
:1013E000C0C6A9C56C35710594F46A357105DCF485
:1013F0006C33710544F466337105CCF465337105C3
:1014000009F499C5AEC66035710559F0AAC66C35A8
:10141000710509F490C56F3571050CF0A2C616E090
:101420008DC512E08BC514E089C517E087C519E0AA
:1014300085C56630710534F46330710544F477FD79
:101440001CC7F3C66E31710509F4EFC616C718E064
:10145000EDC680910A06811131C71AA61FA61BA6E8
:101460001CA61DA61EA6C12CD12C760118AA19AA4D
:1014700090E89AABAFEBABAB612C66E0762E9E01A9
:10148000265D3F4F4CA95DA9BE016B5D7F4FCE012C
:1014900089968ADE892B09F406C109A5802F90E080
:1014A000FC01E654F109E531F10508F0F3C0EA5A10
:1014B000FF4F0C940B36ADA0BEA00FA118A520E0E5
:1014C00030E0A901B501C8010E942732181614F0B6
:1014D00070920A0690910C0680910D06992381F076
:1014E000882309F4DBC023E333E34BEC51E4B5017B
:1014F000C8010E94FC3468AB79AB8AAB9BABBFCF11
:10150000882351F023E333E34BEC51E4B501C801E8
:101510000E94FC345B0101C0C801A501BC014093DD
:101520001206509313066093140670931506A7CF06
:1015300010E0095411096DA17EA18FA198A52091F9
:101540000D06222331F023E333E34BEC51E40E94F8
:10155000FC34000F111F000F111FE1E0F0E0EC0F51
:10156000FD1FE00FF11F648775878687978787CFF8
:101570006DA17EA18FA198A50E94CA350E949B32C1
:101580006FA77DCFCDA0DEA0EFA0F8A478CF8DA16E
:101590009EA1AFA1B8A58BA79CA7ADA7BEA7809120
:1015A0000D06882309F46BCF23E333E34BEC51E4BE
:1015B0006BA57CA58DA59EA50E94FC346BA77CA77E
:1015C0008DA79EA75CCF20E030E0A9016DA17EA190
:1015D0008FA198A50E94273287FF51CF70920A06EB
:1015E0004ECF8DA09EA0AFA0B8A420E030E0A9010E
:1015F000C501B4010E94273287FD70920A06C50119
:10160000B4010E94CA350E949B326093220637CFF4
:101610006DA17EA18FA198A520910D06222331F006
:1016200023E333E34BEC51E40E94FC34698F7A8F5F
:101630008B8F9C8F962D9160692E21CF6DA17EA1FD
:101640008FA198A520910D06222331F023E333E3E7
:101650004BEC51E40E94FC346D8F7E8F8F8F98A3EA
:10166000A62DA2606A2E0BCF6DA17EA18FA198A599
:1016700020910D06222331F023E333E34BEC51E4B8
:101680000E94FC3469A37AA38BA39CA3B62DB460FB
:101690006B2EF5CEE3E0E0930A06F1CEA8AAB9AA34
:1016A0000AAB1BABECCE80910A06811107C651FE36
:1016B00013C0BE016F5F7F4F809126060E94EB1E14
:1016C000882309F4ABC18CE0FE013196A7E2B6E0B5
:1016D00001900D928A95E1F7822D90E0FC013197FF
:1016E000E830F10508F09CC1E559FF4F0C940B362A
:1016F00020E030E0A901C701B6010E94273287FF30
:1017000004C086E080930A068BC18091FB05873078
:1017100009F486C1C701B60185DC82C1C701B601E3
:101720000E94CA35FFA5F23011F0F43131F40E9465
:1017300096329B016730710510F083E006C061109E
:1017400007C04FA5423021F486E080930A065CC1B1
:10175000232B21F08B010150110903C000912606B3
:1017600010E0202EBE016F5F7F4F802F0E94EB1E86
:10177000882309F453C14AE0842E46E0942E5E018A
:1017800089E1A80EB11CDE0111966D01E12CF12C4E
:10179000712CC3010E2C02C0959587950A94E2F72F
:1017A00080FF20C0BFA5F501B43199F420813181BB
:1017B00042815381D4011C966D917D918D919C91B4
:1017C0001F970E944D31F60160837183828393835A
:1017D00009C080819181A281B381F60180839183C8
:1017E000A283B383FFEFEF1AFF0A24E0820E911C5D
:1017F00034E0A30EB11C44E0C40ED11C83E0E81613
:10180000F10439F6BE016F5F7F4F822D0E94241EC6
:101810008091260690E00817190709F0F5C08CE0C2
:10182000FE013196A7E2B6E09FC0662009F475C0BC
:10183000B0900E068E01075E1F4F3AE0E32E36E0B1
:10184000F32EC12CD12C712CC3010C2C02C0959508
:1018500087950A94E2F780FF33C0BB20F9F0D701E7
:1018600099962D913D914D915C919C975D966D91CE
:101870007D918D919C9190970E944E319B01AC017E
:10188000F80160817181828193810E944E31D8017B
:101890006D937D938D939C9313971CC0F7012485C2
:1018A000358546855785D8016D917D918D919C91A7
:1018B0000E944E31F80160837183828393830AC052
:1018C000F70184859585A685B785F8018083918386
:1018D000A283B383FFEFCF1ADF0A0C5F1F4F24E010
:1018E000E20EF11C33E0C316D10409F0ADCFA09095
:1018F0005106B0905206C0905306D0905406E9A00D
:10190000FAA00BA11CA12D8D3E8D4F8D58A1698D84
:101910007A8D8B8D9C8D812C2BD845E0BE016F5F1D
:101920007F4F241226C087E00E94EB1E882309F413
:1019300075C0A0905106B0905206C0905306D0904A
:101940005406E984FA840B851C852D813E814F81E4
:10195000588569817A818B819C81812C09D88CE0A2
:10196000FE013196A6E1B6E001900D928A95E1F76D
:101970004BC086E0D9CF86E066E176E0281202C04F
:1019800087E001C086E00E94241E4AC0662009F458
:10199000DBCE0AE016E06E0199E1C90ED11CE12C04
:1019A000F12C712CC3010E2C02C0959587950A94D9
:1019B000E2F780FF1DC0D8015D962D913D914D91BC
:1019C0005C9190971C966D917D918D919C911F9744
:1019D0000E944D31F60120813181428153810E9464
:1019E0004D31D80199966D937D938D939C939C97DF
:1019F000BFEFEB1AFB0A0C5F1F4FE4E0CE0ED11CC9
:101A0000F3E0EF16F10471F6612C0AC08CE0E3E319
:101A1000F6E0DF011D928A95E9F702C08AE04EC424
:101A200042FC03C0662009F46FC220900C062220FD
:101A3000D1F020E030E0A90168A979A98AA99BA981
:101A40000E94273287FF0FC080910B06843071F00F
:101A500086E080930A06332009F46BC280910B065E
:101A6000823030F408C03110F9CF05C0332019F0AE
:101A700086E080930A0680910A0681111FC4909027
:101A80000E068E01075E1F4F2AE0E22E26E0F22EA0
:101A9000C12CD12CA62CB12CC5010C2C02C09595C3
:101AA00087950A94E2F780FF33C031103BC099203C
:101AB000D1F0F70121A532A543A554A5658D768DFA
:101AC000878D90A10E944E319B01AC01D8016D9190
:101AD0007D918D919C910E944E31F80160837183BC
:101AE000828393831FC0D7011C962D913D914D9108
:101AF0005C911F97F80160817181828193810E94BE
:101B00004E31D8016D937D938D939C9313970AC0AA
:101B1000F70184859585A685B785F8018083918333
:101B2000A283B383FFEFCF1ADF0A0C5F1F4F24E0BD
:101B3000E20EF11C33E0C316D10409F0ADCF4091A1
:101B40000B064FA7443040F4423008F04DC0442308
:101B500071F0413021F1CBC18FA5843009F0C7C1AC
:101B6000662009F4C4C186E080930A06C0C16620DD
:101B7000D1F3A0905106B0905206C0905306D09079
:101B80005406E9A0FAA00BA11CA12D8D3E8D4F8D0E
:101B900058A1698D7A8D8B8D9C8D812C22C06620F9
:101BA00011F3211009C0B0911206A0911306F09113
:101BB0001406E091150604C0B8A9A9A9FAA9EBA9D1
:101BC000E9A0FAA00BA11CA12D8D3E8D4F8D58A12F
:101BD000698D7A8D8B8D9C8D822CAB2EBA2ECF2E5B
:101BE000DE2E0E94B80483C13090250681E090E08B
:101BF000032C01C0880F0A94EAF78095682209F443
:101C0000B2CF20E030E0A9016BA57CA58DA59EA5F3
:101C10000E9427329091230681112EC0E1E0F0E06E
:101C2000EC0FFD1FA4E09A9FE00DF11D1124C48468
:101C3000D584E684F78420E030E0A901C701B6012D
:101C40000E94273210912406811106C120E030E065
:101C5000A901E1E0F0E0EC0FFD1FB4E01B9FE00DF7
:101C6000F11D112464857585868597850E9427322C
:101C7000882309F478CFF0C0892F90E08C01000F01
:101C8000111F000F111FA1E0B0E0AC0FBD1FA00F8E
:101C9000B11FF801EA5EF94F208131814281538101
:101CA00058966D917D918D919C915B970E944D31DD
:101CB0004B015C018091240690E0FC01EE0FFF1FB8
:101CC000EE0FFF1FFDABECABE1E0F0E0EC0FFD1F12
:101CD0002CA93DA9E20FF31FD901AA5EB94F2D919E
:101CE0003D914D915C91608D718D828D938D0E949F
:101CF0004D312B013C01FE013D968CE0DF011D9230
:101D00008A95E9F720E030E040E850E46BA57CA537
:101D10008DA59EA50E94FC342BA53CA54DA55EA5D6
:101D20000E94FC346B017C01A5019401C501B40142
:101D30000E94FC349B01AC01C701B6010E944D31E9
:101D40006B017C01A3019201C301B2010E94FC342A
:101D50009B01AC01C701B6010E944D316B017C01B2
:101D600020E030E0A9010E94273287FF04C084E010
:101D700080930A06A3C2C701B6010E9489356B0190
:101D80007C01A3019201C501B4010E9437349B017B
:101D9000AC01C701B60190580E942E326B017C0144
:101DA000BFA5B33021F4F7FAF094F7F8F09420E0EF
:101DB00030E0A9016BA57CA58DA59EA50E942732C8
:101DC00087FF0DC0F7FAF094F7F8F0948BA59CA567
:101DD000ADA5BEA5B0588BA79CA7ADA7BEA7A1E097
:101DE000B0E0AC0FBD1F0A0F1B1FA3019201C7017A
:101DF000B6010E94FC349B01AC01C501B4010E94F4
:101E00004D3120E030E040E05FE30E94FC34F80117
:101E1000648775878687978701E010E00C0F1D1F88
:101E20002CA93DA9020F131FA5019401C701B601FA
:101E30000E94FC34A30192010E944E3120E030E068
:101E400040E05FE30E94FC34D8011C966D937D93C3
:101E50008D939C931F9715C0E1E0F0E0EC0FFD1F00
:101E6000B4E01B9FE00DF11D1124248535854685C6
:101E70005785C701B6010E9437346BA77CA78DA791
:101E80009EA741E0EFA5E23009F040E0211009C033
:101E90003091120620911306909114068091150638
:101EA00004C038A929A99AA98BA94F93FEA5FF932D
:101EB0004DA54F93ACA5AF93BBA5BF93822CA32E8A
:101EC000B22EC92ED82EE32C009124062091230691
:101ED000AE01435F5F4FBE01675E7F4F86E196E0D4
:101EE0000E942B050F900F900F900F900F908091F4
:101EF0000A068111E3C18CE0FE017996A6E1B6E005
:101F000001900D928A95E1F780910F06882361F088
:101F10000E94D9231092090680910F06823011F495
:101F20002DD902C010920F0680910A06C7C18CE01D
:101F3000C5C186E0C3C111E001C013E08531910540
:101F400081F410920D060AC0823091050CF015C183
:101F5000892B09F043C010E010920B06111116C036
:101F600000CA863191050CF076C08430910509F4E1
:101F7000F5C0ECF08231910509F44EC00CF05CC064
:101F80008A30910509F04FC0E2E02E2EC60102C052
:101F9000880F991F1A95E2F7920128233923232BE2
:101FA00019F070920A06DDC9482A592ADAC9813027
:101FB000910519F400930B06D1CF8230910594F46A
:101FC000892B51F20CC0863391050CF008C18C317D
:101FD000910509F402C14E9709F4FFC010E0E092A8
:101FE0000A06BCCF8230910519F4F0920B06B6CFE9
:101FF0000397A9F7E0920B06B1CF863191050CF05B
:10200000DEC08430910509F40DC10CF4B0C08231FA
:10201000910509F0BCC010E010922306F09224064E
:10202000009325069BCF4197D1F61092230600938B
:102030002406F092250692CF8331910539F400935E
:102040002306F09224061092250688CF449739F68D
:1020500000930D0683CF8035910519F460920B062D
:102060007DCF813591050CF03FC08533910519F482
:102070003324339473CF863391057CF58C319105ED
:1020800049F520E030E040E251E4C501B4010E948E
:10209000FC340E94CA350E9496326931B1E07B0758
:1020A000B1F03CF46831714009F099CF23E0222E61
:1020B00055CF6C3221E0720739F06D32714009F072
:1020C0008ECF86E0282E4ACF95E0292E47CFA4E078
:1020D0002A2E44CF4E97A9F282CFCC970CF07FCF17
:1020E0006653609326063ACF8C359105D1F420E0F3
:1020F00030E040E251E4C501B4010E94FC340E948A
:10210000CA350E949632683943E0740739F069395C
:10211000734009F064CFF8E02F2E20CFB7E02B2ECC
:102120001DCF8D3591056CF48A35910519F4009316
:102130000E0614CF8B35910509F051CF10920E0683
:102140000DCF8D35910519F400930C0607CF8E3510
:10215000910509F044CF10920C0600CF222423945D
:1021600015CF8531910509F048CF10E0EACE8130D6
:10217000910509F0E9CE10E01DCF8230910511F4F0
:1021800010E033CF039709F029CF10E033CF83312C
:1021900091055CF48A30910519F472E0272EE1C8AC
:1021A000419709F01BCF10E040CF8331910511F426
:1021B00010E045CF449709F011CF10E049CF8035AA
:1021C000910511F410E04ACF813591056CF4853307
:1021D000910509F0F8CE10E04BCF10E052CFCC972C
:1021E0000CF0FCCE10E07CCF8C35910511F410E0A2
:1021F0007ECF8D3591055CF48A35910511F410E0A0
:1022000096CF8B35910509F0E9CE10E097CF8D354B
:10221000910511F410E098CF8E35910509F0DECECE
:1022200010E099CF222423949CC815E083309105B7
:1022300019F40093100692CE8430910574F4813025
:10224000910509F4A3CE1CF0F0920F0687CE892BDE
:1022500009F0C5CE00930F0681CE8530910519F4A3
:10226000109210067BCE8530910524F48FEF809379
:10227000100674CE4E9741F3B2CE8330910511F41F
:1022800010E0D7CF8430910564F48130910509F4D2
:1022900068C814F010E0D8CF892B09F09FCE10E069
:1022A000D9CF8530910511F410E0DACF8530910552
:1022B00014F410E0DBCF4E9769F390CEE5960FB69D
:1022C000F894DEBF0FBECDBFDF91CF911F910F916C
:1022D000FF90EF90DF90CF90BF90AF909F908F9046
:1022E0007F906F905F904F903F902F90089584B7AC
:1022F000877F84BF0FB6F894A895809160008861AD
:1023000080936000109260000FBE90E080E80FB6EE
:10231000F89480936100909361000FBE0E943C2C62
:1023200062E271E080E091E00E9488307894089544
:102330000F931F93CF93DF93809121019091200100
:102340008823A1F0911112C06BE171E080ED91E062
:102350000E94AB298DEC91E00E94AB298CEA91E0C0
:102360000E94AB2981E08093200106C0992321F0CF
:10237000811102C01092200180E091E00E941D3086
:102380008C01C0E0D0E080E091E00C171D0729F03F
:102390000E944A30B7D12196F6CF0E940730DF91D4
:1023A000CF911F910F910C94612F62E271E090E048
:1023B0000C942A3680E091E00C94D92F80E091E0D3
:1023C0000C947D2F80E091E00C949C30FC0180897E
:1023D0008170809321010895109231011092300193
:1023E000F7C7CF93C0E062E371E08C2F0E94D01E4C
:1023F000811102C08AE00CC080913201882349F02B
:1024000082E391E00E949F2982E391E00E9470099B
:102410005CD7CF5FC23039F7CF910895CF938091C9
:10242000FC05882309F44DC0C091FC058C2F8076F3
:10243000D1F086E08093FB05C6FF0EC08FEF88D7F2
:1024400081E0A0D78091FC058F7E8093FC05809170
:10245000FC0584FFFCCF02C08EEF7AD78091FC058B
:102460008F798093FC05C4FF04C081E08093FA0556
:1024700028C0C0FF07C00E94881C8091FC058E7F89
:102480008093FC05C3FF06C0D1D68091FC05877FF1
:102490008093FC05C2FF06C0D3D68091FC058B7FDC
:1024A0008093FC05C1FF0DC0B8D68091620681FF04
:1024B00003C081E0809309068091FC058D7F8093A5
:1024C000FC05CF910895CF92DF92EF92FF920F9388
:1024D0001F93CF93DF93CDB7DEB729970FB6F8944C
:1024E000DEBF0FBECDBF8C01FC018081843209F0BC
:1024F000F5C081E089878181833491F140F4833292
:10250000E9F0843289F081117FC075D7BFC088346B
:1025100009F44FC018F48734D1F076C08E3409F432
:102520005AC08835B1F170C082E08987F801828194
:10253000882311F013E0D6C062D7A8C082E0898753
:10254000F80182818111F6CF0E940E1B9FC082E0AC
:102550008987F80182818111EDCF0E94B91B96C055
:1025600082E08987F80182818111E4CF1091FB0517
:10257000173029F40E94BE0885E004D787C01123D4
:1025800011F01BE0AFC087E08093FB0584E0FAD632
:10259000A9C082E08987F80182818111CBCF809127
:1025A000FB05863009F072C083E0ECD61092FB0583
:1025B0006DC08091620684FF8FC08091FB058823E7
:1025C00011F08630F1F60E946A081091FA05111197
:1025D0005DC007DF87C082E08987F80182818111B1
:1025E00015C0F12CB8018F2D0E94D01E811103C09F
:1025F0008AE06BD604C0B8018F2D0E946B1CF39447
:10260000F2E0FF12EFCF42C0F12C02C0FF24F3949E
:10261000AE014B5F5F4FBE01675F7F4FC8010E94F5
:102620006D28892B11F411E05DC0998581E0890F37
:102630008987F801E90FF11D90819D3309F07ACF68
:10264000FF2031F1482F50E0282F30E0D801A20FB1
:10265000B31F9C91241B350BF801E20FF31F9083ED
:102660008F5F9C919111F0CF8987C8010E947009FA
:10267000811137C06D817E818F8198850E94CA3516
:102680000E949B32862FB8010E941C1E10E02AC0B7
:10269000AE014F5F5F4FBE01675F7F4FC8010E9471
:1026A0006D28892B09F4BFCF8985F801E80FF11D4A
:1026B000808181113FCFC980DA80EB80FC806D8101
:1026C0007E818F8198850E949632DC01CB01B70113
:1026D000A6010E942C1F05C017E004C0C8010E947B
:1026E0007009182F812F29960FB6F894DEBF0FBE00
:1026F000CDBFDF91CF911F910F91FF90EF90DF90B1
:10270000CF900895813289F020F48831A1F40C949F
:10271000BE088F3331F08E3771F48091FC058260F2
:1027200007C08091FC05816003C08091FC05886032
:102730008093FC0508958A3011F08D3099F46EDE97
:102740008091FA05811138C0E0913101EE2341F00A
:10275000F0E0EE5CFE4F108282E391E0B4DE18C040
:1027600080E016C090913001992319F0893221F54B
:1027700012C0813208F18F32F9F0883221F481E001
:1027800080933001089520913101293538F08DE092
:102790009CD51092310110923001089541E0420F12
:1027A00030E09FE9980F40933101F901EE5CFE4F54
:1027B0009A3108F48052808308954091A901509184
:1027C000AA016091AB017091AC018091A50190913B
:1027D000A601A091A701B091A801840F951FA61F83
:1027E000B71F813022EE920724E0A207B10550F412
:1027F0008093A9019093AA01A093AB01B093AC017F
:1028000080E00895925EA440B1098093A90190935D
:10281000AA01A093AB01B093AC0181E008959B01A4
:10282000AC01203283E038074105510520F420E255
:1028300033E040E050E060E070E788E399E30E9415
:10284000E9352115310581E04807510518F4B90132
:1028500081E02FC02115310588E048075105A8F413
:10286000DA01C901F3E0B695A79597958795FA9592
:10287000D1F7BC019C01AD01A3E0220F331F441F1F
:10288000551FAA95D1F782E014C0DA01C90126E0EC
:10289000B695A795979587952A95D1F7BC019C0188
:1028A000AD01E6E0220F331F441F551FEA95D1F713
:1028B00083E090918100987F892B809381007093B1
:1028C0008900609388002093A5013093A60140936E
:1028D000A7015093A80108958091620682FF02C06B
:1028E000299A01C029988091FB05833081F4809159
:1028F000550680938D0180914C06880F84508195F8
:1029000080938E0180916F00826080936F000895A4
:1029100080916F008D7F80936F00809172068F3F52
:1029200021F49091FC0595FF0AC090E00E941F29B8
:102930008091620682FF02C029980895299A08951D
:102940001F920F920FB60F9211240F931F932F9384
:102950003F934F935F936F937F938F939F93AF9327
:10296000BF93CF93DF93EF93FF9380918C018111FD
:10297000F4C38BB190918D019E70817F892B8BB9AF
:102980009BB180918D01892B8BB980918E0186BD81
:1029900082E085BD81E080938C01789480918F01E5
:1029A00090919001892B09F07DC00E94BF23EC011A
:1029B0009093900180938F01892B09F46DC08091D1
:1029C000FB058330C9F46BA17CA18DA19EA160930E
:1029D000AD017093AE018093AF019093B0011FDF02
:1029E00080E091E7A2E0B0E08093A9019093AA0172
:1029F000A093AB01B093AC018BA59CA5ADA5BEA5E2
:102A0000AC01BD017595679557954795840F951F46
:102A1000A61FB71F8093B1019093B201A093B30199
:102A2000B093B4014D855E856F857889DB01CA015D
:102A3000B595A79597958795B095A0959095819513
:102A40009F4FAF4FBF4F8093910190939201A093FE
:102A50009301B09394018093950190939601A09374
:102A60009701B09398018093990190939A01A09354
:102A70009B01B0939C0140939D0150939E016093F4
:102A80009F017093A0011092A1011092A2011092D7
:102A9000A3011092A40106C03BDF8091FC05846075
:102AA0008093FC05E0918F01F0919001309709F43B
:102AB0004BC3208120938D0140919101509192014F
:102AC000609193017091940181819281A381B4817D
:102AD000840F951FA61FB71F8093910190939201B9
:102AE000A0939301B0939401181619061A061B06B9
:102AF0000CF091C040919D0150919E0160919F0109
:102B00007091A001841B950BA60BB70B80939101CC
:102B100090939201A0939301B09394018091FD054D
:102B20009091FE05A091FF05B091000621FF04C021
:102B30000197A109B10903C00196A11DB11D8093A0
:102B4000FD059093FE05A093FF05B09300068091CC
:102B5000FD059091FE055C982A98299A29982A9A51
:102B6000299A2998299A2998299A299893FF02C085
:102B70002A9A01C02A98299A299892FF02C02A9A73
:102B800001C02A98299A299891FF02C02A9A01C067
:102B90002A98299A299890FF02C02A9A01C02A9857
:102BA000299A299887FF02C02A9A01C02A98299A4F
:102BB000299886FF02C02A9A01C02A98299A299842
:102BC00085FF02C02A9A01C02A98299A299884FF71
:102BD00002C02A9A01C02A98299A299883FF02C024
:102BE0002A9A01C02A98299A299882FF02C02A9A13
:102BF00001C02A98299A299881FF02C02A9A01C007
:102C00002A98299A299880FF02C02A9A01C02A98F6
:102C1000299A29985C9AE0918F01F0919001458161
:102C20005681678170858091950190919601A09160
:102C30009701B0919801840F951FA61FB71F80932D
:102C4000950190939601A0939701B093980118165F
:102C500019061A061B060CF093C020918D014091B5
:102C60009D0150919E0160919F017091A001841B74
:102C7000950BA60BB70B8093950190939601A093AB
:102C80009701B09398018091010690910206A0915E
:102C90000306B091040622FF04C00197A109B109FF
:102CA00003C00196A11DB11D8093010690930206F9
:102CB000A0930306B093040680910106909102064A
:102CC0005C982A9A299A29982A9A299A2998299ABD
:102CD0002998299A299893FF02C02A9A01C02A9814
:102CE000299A299892FF02C02A9A01C02A98299A03
:102CF000299891FF02C02A9A01C02A98299A2998F6
:102D000090FF02C02A9A01C02A98299A299887FF21
:102D100002C02A9A01C02A98299A299886FF02C0DF
:102D20002A9A01C02A98299A299885FF02C02A9ACE
:102D300001C02A98299A299884FF02C02A9A01C0C2
:102D40002A98299A299883FF02C02A9A01C02A98B2
:102D5000299A299882FF02C02A9A01C02A98299AA2
:102D6000299881FF02C02A9A01C02A98299A299895
:102D700080FF02C02A9A01C02A98299A29985C9A51
:102D8000E0918F01F09190014185528563857485B2
:102D90008091990190919A01A0919B01B0919C0121
:102DA000840F951FA61FB71F8093990190939A01D6
:102DB000A0939B01B0939C01181619061A061B06D6
:102DC0000CF093C020918D0140919D0150919E0186
:102DD00060919F017091A001841B950BA60BB70B0E
:102DE0008093990190939A01A0939B01B0939C01C9
:102DF0008091050690910606A0910706B0910806FD
:102E000023FF04C00197A109B10903C00196A11DC8
:102E1000B11D8093050690930606A0930706B09314
:102E20000806809105069091060646982A98299AE8
:102E300029982A9A299A2998299A2998299A299881
:102E400093FF02C02A9A01C02A98299A299892FFD2
:102E500002C02A9A01C02A98299A299891FF02C093
:102E60002A9A01C02A98299A299890FF02C02A9A82
:102E700001C02A98299A299887FF02C02A9A01C07E
:102E80002A98299A299886FF02C02A9A01C02A986E
:102E9000299A299885FF02C02A9A01C02A98299A5E
:102EA000299884FF02C02A9A01C02A98299A299851
:102EB00083FF02C02A9A01C02A98299A299882FF82
:102EC00002C02A9A01C02A98299A299881FF02C033
:102ED0002A9A01C02A98299A299880FF02C02A9A22
:102EE00001C02A98299A2998469A8091A101909127
:102EF000A201A091A301B091A4010196A11DB11D51
:102F00008093A1019093A201A093A301B093A40187
:102F1000C0918F01D09190014D855E856F85788934
:102F200084179507A607B70708F008C12091FB058D
:102F3000243019F542DC882309F406C18091AD01E3
:102F40009091AE01A091AF01B091B0010BA51CA56D
:102F50002DA53EA5081719072A073B0738F0D8DC2E
:102F60008091FC0584608093FC05EEC0BC01CD011E
:102F7000601B710B820B930BD8C04FA558A969A990
:102F80007AA984179507A607B707B8F516DC882332
:102F900009F4DAC04091AD015091AE016091AF01EA
:102FA0007091B0018BA59CA5ADA5BEA5840F951F02
:102FB000A61FB71F8093AD019093AE01A093AF0100
:102FC000B093B0014FA958AD69AD7AAD841795079C
:102FD000A607B70740F04093AD015093AE01609350
:102FE000AF017093B0016091AD017091AE0180911D
:102FF000AF019091B00113DCA7C04BA95CA96DA9EA
:103000007EA984179507A607B70708F47DC0841723
:103010009507A607B70779F54091AD015091AE012C
:103020006091AF017091B0018FA998ADA9ADBAAD13
:10303000481759076A077B0729F480E091E7A2E067
:10304000B0E010C04091A9015091AA016091AB017C
:103050007091AC0180E092EEA4E0B0E0841B950B8F
:10306000A60BB70B8093A9019093AA01A093AB0183
:10307000B093AC0169C0A1DB882309F465C08091DD
:10308000AD019091AE01A091AF01B091B00140911E
:10309000B1015091B2016091B3017091B401481730
:1030A00059076A077B0748F44BA55CA56DA57EA56B
:1030B000841B950BA60BB70B04C0B695A7959795E7
:1030C00087958093AD019093AE01A093AF01B0932B
:1030D000B0018FA198A5A9A5BAA54091AD015091C5
:1030E000AE016091AF017091B001481759076A07AE
:1030F0007B0708F078CF8093AD019093AE01A09349
:10310000AF01B093B0016FCF6FA978AD89AD9AAD23
:103110000091AD011091AE012091AF013091B0014D
:10312000061717072807390779F06093AD017093E8
:10313000AE018093AF019093B0015DCF10929001EA
:1031400010928F010E94B02390918D0180915506BD
:10315000892780938D0110928C01FF91EF91DF916F
:10316000CF91BF91AF919F918F917F916F915F911F
:103170004F913F912F911F910F910F900FBE0F9084
:103180001F9018951F920F920FB60F9211248F93D4
:103190008BB18BB915BC8F910F900FBE0F901F9004
:1031A000189584E2E1E9F1E0DF011D928A95E9F7E3
:1031B00060E273E080E090E032DB109290011092C8
:1031C0008F0110928C0108958AB18E608AB98BB1FB
:1031D000817F90915506892B8BB9219AE1E8F0E027
:1031E00080818F7E8083808188608083E0E8F0E04A
:1031F00080818D7F808380818E7F808380818F73AB
:10320000808380818F7C808314BC15BCEEE6F0E067
:1032100080818160808360DB7BCB8091FB05823085
:1032200021F483E08093FB0557CB08958091FB0543
:10323000833029F484E08093FB05109209060895F9
:103240000F931F93E0918F01F09190013097C1F19E
:1032500085859685A785B0890091A1011091A2016D
:103260002091A3013091A401BC01CD01601B710B21
:10327000820B930B0E9421281092AD011092AE0197
:103280001092AF011092B00160E070E0CB01C7DA9C
:1032900080E091E7A2E0B0E08093A9019093AA01B9
:1032A000A093AB01B093AC011092A1011092A201C6
:1032B0001092A3011092A40182E08093FB0502C04A
:1032C0001092FB051F910F910895CF93811103C0B8
:1032D00087E298E03AC0C82F8FE198E00E94AB29BE
:1032E0008C2F90E0FC013197ED30F10560F5ED5841
:1032F000FF4F0C940B368DE098E023C085EF97E0EC
:1033000020C08FED97E01DC080ED97E01AC08AEBDA
:1033100097E017C088EA97E014C087E997E011C0EA
:103320008BE897E00EC08CE797E00BC08BE597E049
:1033300008C08CE497E005C081E497E002C083E315
:1033400097E00E94AB2980E397E0CF910C94AB29E2
:10335000CF93C82F88E297E00E94AB29CE3F29F097
:10336000CF3F39F48DE197E002C08AE097E00E94F8
:10337000AB2980E097E00E94AB2984EF91E0CF91E8
:103380000C941F29CF93C82F8EEF96E00E94AB2993
:10339000C33091F038F4C13061F0C230A1F488ED4F
:1033A00096E00FC0C43059F0C53069F485EB96E063
:1033B00008C08CEE96E005C086EC96E002C08EEB6D
:1033C00096E00E94AB2981EB96E0CF910C94AB295B
:1033D00084E996E00E94AB2986E796E00E94AB293B
:1033E000549A3E9A579A219A229A5C9A469A5F9AE0
:1033F000509A5898089588E495E00C94AB29CF939F
:10340000DF9384E495E00E94AB29CFE3D6E06881A6
:1034100079818A819B810E94612A81E395E00E94E3
:10342000AB296C817D818E819F810E94612A8EE112
:1034300095E00E94AB29688579858A859B850E94E5
:10344000612A8BE095E00E94AB296D8570E080E0F9
:1034500090E00E94ED2982EF94E00E94AB296E85F6
:103460007F85888999890E94612A85ED94E00E9470
:10347000AB296A897B898C899D890E94612A88EBA6
:1034800094E00E94AB296E8970E080E090E00E9499
:10349000ED298AE994E00E94AB298E890E94BA291D
:1034A00083E994E00E94AB296BA970E080E090E092
:1034B0000E94ED2985E794E00E94AB2920E030E0EE
:1034C00041E655E46B8D7C8D8D8D9E8D0E942E3254
:1034D0000E94612A86E594E00E94AB296F8D78A155
:1034E00089A19AA10E94612A86E394E00E94AB29F7
:1034F0006F89788D898D9A8D0E94612A8DE194E083
:103500000E94AB296DA970E080E090E00E94ED2957
:103510008EEF93E00E94AB296CA970E080E090E010
:103520000E94ED2985EE93E00E94AB296BA16170AA
:1035300070E080E090E00E94ED2988EC93E00E942A
:10354000AB296BA16695617070E080E090E00E940D
:10355000ED298EEA93E00E94AB296BA162FB6627FE
:1035600060F970E080E090E00E94ED298CE893E043
:103570000E94AB296BA163FB662760F970E080E0D5
:1035800090E00E94ED2981E793E00E94AB296BA1B6
:103590006295617070E080E090E00E94ED2985E521
:1035A00093E00E94AB296CA170E080E090E00E9463
:1035B000ED2986E393E00E94AB298CA10E94BA29F1
:1035C0008EE293E00E94AB296DA17EA18FA198A508
:1035D0000E94612A81E193E00E94AB2969A57AA546
:1035E0008BA59CA50E94612A84EF92E00E94AB29E2
:1035F0006DA57EA580E090E00E94ED2985ED92E02A
:103600000E94AB296FA578A989A99AA90E94612A6D
:103610008CEB92E0DF91CF910C94AB29EF92FF926B
:103620000F931F93CF93DF93CDB7DEB72C970FB6D1
:10363000F894DEBF0FBECDBF10E0BE016F5F7F4FBD
:10364000812FC9D3811103C08AE03FDE85C089EB99
:1036500092E00E94AB29812F90E0FC013197E73086
:10366000F10520F4E058FF4F0C940B3685EB92E007
:1036700014C081EB92E011C08DEA92E00EC089EA9D
:1036800092E00BC085EA92E008C081EA92E005C0B2
:103690008DE992E002C089E992E00E94AB29CE0157
:1036A00001967C0100E08091620680FF0CC02BE84F
:1036B00032E441E25DE3F7016081718182819381AF
:1036C0000E94FC3405C0F701608171818281938181
:1036D0000E94612A023019F087E992E002C083E972
:1036E00092E00E94AB290F5FF4E0EF0EF11C033073
:1036F000D1F61F5F183009F0A0CF8DE892E00E944C
:10370000AB298AE0E82E86E0F82E10E08091620670
:1037100080FF0CC02BE832E441E25DE3F70161A5D4
:1037200072A583A594A50E94FC3405C0F70161A58C
:1037300072A583A594A50E94612A123019F08BE826
:1037400092E002C087E892E00E94AB291F5FF4E09C
:10375000EF0EF11C1330D1F62C960FB6F894DEBFA5
:103760000FBECDBFDF91CF911F910F91FF90EF90D2
:10377000089580910B06823091F038F4882361F02F
:103780008130A1F48FE792E00FC0833059F084308C
:1037900069F482E792E008C083E892E005C08BE715
:1037A00092E002C087E792E00E94AB298FE692E0A8
:1037B0000E94AB296091260670E06A5C7F4F072E5D
:1037C000000C880B990B0E94ED2980912306811132
:1037D0000AC080912406813019F48AE692E005C07F
:1037E00085E692E002C080E692E00E94AB298091DB
:1037F0000D06882319F08BE592E002C086E592E081
:103800000E94AB2980910E06882319F081E592E091
:1038100002C08CE492E00E94AB2980910C068823C0
:1038200019F087E492E002C082E492E00E94AB29A2
:1038300080910F06813049F028F0823051F486E300
:1038400092E005C08EE392E002C08AE392E00E941B
:10385000AB2980911006882351F0813029F08F3FE9
:1038600051F48EE292E005C082E392E002C08AE267
:1038700092E00E94AB2987E292E00E94AB2960911E
:10388000220670E080E090E00E94ED2984E292E060
:103890000E94AB2980910D06882379F02BE832E451
:1038A00041E25DE360911206709113068091140667
:1038B000909115060E94FC3408C060911206709128
:1038C000130680911406909115060E94612A80E2E9
:1038D00092E00C94AB290F931F93CF93C82F8B01C9
:1038E0008DE192E00E94AB296C2F70E080E090E0C7
:1038F0000E94ED298BE192E00E94AB29C8010E9451
:103900009F2988E192E0CF911F910F910C94AB29F0
:103910004F925F926F927F928F929F92AF92BF92DF
:10392000CF92DF92EF92FF920F931F93CF93DF938B
:10393000CDB7DEB768970FB6F894DEBF0FBECDBF28
:103940008CE0EDEFF5E0DE011D9601900D928A9579
:10395000E1F7E091FB058E2F90E088309105D8F4D7
:10396000FC01E957FF4F0C940B3682E192E011C045
:103970008BE092E00EC086E092E00BC080E092E027
:1039800008C08AEF91E005C083EF91E002C08CEEA1
:1039900091E00E94AB2985EE91E00E94AB296E0177
:1039A0008DE0C80ED11C9FE3A92E96E0B92E8E01A2
:1039B0000F5F1F4F4E01E9E18E0E911C7801F60159
:1039C00061917191819191916F01F50141905190B7
:1039D000619071905F010E94C932A30192010E941F
:1039E0002E323701F70160837183828393832091A4
:1039F000620620FF0BC02BE832E441E25DE30E9447
:103A0000FC34F7016083718382839383F4E0EF0ECB
:103A1000F11CF30160817181828193810E94612A8E
:103A200083EE91E00E94AB29C814D90441F68DEDD4
:103A300091E00E94AB298AE0E82E86E0F82ED12C96
:103A400080916206F70121A532A543A554A580FF08
:103A50000DC0658D768D878D90A10E944E312BE82B
:103A600032E441E25DE30E94FC3406C0658D768D50
:103A7000878D90A10E944E319B01AC01F8016081BD
:103A80007181828193810E944D31F801608371833D
:103A900082839383F80161917191819191918F015A
:103AA0000E94612AF2E0DF1621F08BED91E00E9486
:103AB000AB29D39484E0E80EF11CE3E0DE12C0CF22
:103AC00087ED91E068960FB6F894DEBF0FBECDBFCC
:103AD000DF91CF911F910F91FF90EF90DF90CF90EA
:103AE000BF90AF909F908F907F906F905F904F901E
:103AF0000C94AB29F999FECF92BD81BD81E08FBBBB
:103B000080B50895F894F999FECF92BD81BD81E00A
:103B10008FBB80B58627982F962339F06F3F19F019
:103B200060BD84E006C084E104C0882321F060BD4C
:103B300084E28FBBF99A789408959F92AF92BF92D6
:103B4000CF92DF92EF92FF920F931F93CF93DF9369
:103B50008C017A016B01C40ED51EEB01912C5C0126
:103B6000A61AB70ACE018A0D9B1DCC15DD0589F07A
:103B7000911009C0692D772767FD7095272F221FA7
:103B80002227221F01C021E06991922E960EBADFF2
:103B9000E9CF692DC8018E0D9F1DDF91CF911F9137
:103BA0000F91FF90EF90DF90CF90BF90AF909F90DC
:103BB000A9CF9F92AF92BF92CF92DF92EF92FF92E6
:103BC0000F931F93CF93DF938B017A016C01C40E87
:103BD000D51EEC01912C5B01A81AB90AC5018C0F06
:103BE0009D1FCC15DD0589F085DF911009C0292DB9
:103BF000332727FD3095232F221F2227221F01C0A4
:103C000021E0922E980E8993E9CFC8018E0D9F1D59
:103C100071DF21E030E0981611F020E030E0C901BA
:103C2000DF91CF911F910F91FF90EF90DF90CF9098
:103C3000BF90AF909F9008952BE5829FC001112403
:103C40004AE550E09D5F79CF2DE0829FC0011124AD
:103C50004CE050E09E5F71CF65E080E090E052DF85
:103C600046E350E06FE376E081E090E066CF8823A2
:103C700009F45EC080E090E0A0E2B2E480933F06E9
:103C800090934006A0934106B0934206809343066A
:103C900090934406A0934506B0934606809347064A
:103CA00090934806A0934906B0934A068AE0809311
:103CB0004C0680E090E0AAE7B3E480934D06909331
:103CC0004E06A0934F06B093500680E090E0AAEF16
:103CD000B3E48093510690935206A0935306B09399
:103CE000540680E090EAACE0B7E480935A069093E3
:103CF0005B06A0935C06B0935D068DEC9CECACEC8F
:103D0000BDE38093560690935706A0935806B09350
:103D100059068CE0809355068DEC9CECACE4BDE339
:103D200080935E0690935F06A0936006B093610651
:103D300082E0809362061092630680E090E0A8EC37
:103D4000B1E48093640690936506A0936606B093F1
:103D5000670680E090E0AAE7B3E48093680690935A
:103D60006906A0936A06B0936B0684E690E0909390
:103D70006D0680936C0680E090E0A0E8BFE380933E
:103D80006E0690936F06A0937006B093710689E15A
:103D90008093720693E090937306809374065CCFD1
:103DA0001F93CF93DF93182FEB018BE5189FB00182
:103DB00011247D5F4AE550E0CE01FBDE892B31F412
:103DC0001882BE01812F38DF80E001C081E0DF91E1
:103DD000CF911F9108951F93CF93DF93182FEB017D
:103DE0008DE0189FB00111247E5F4CE050E0CE01C1
:103DF000E0DE892B51F48CE0FE0111928A95E9F7FF
:103E0000BE01812F21DF80E001C081E0DF91CF91F1
:103E10001F91089580E090E06DDE853059F446E30F
:103E200050E061E070E08FE396E0C3DE21E0892B93
:103E300089F402C0853010F020E00CC043E250E06D
:103E400061E070E08FE396E0B4DE892BA9F380E0B7
:103E50000EDF21E0822F0895CF92DF92EF92FF9242
:103E6000CF93DF938731910508F013C16A017B017D
:103E7000EC01FC01E157FF4F0C940B3620E030E0E1
:103E8000A901C701B6010E94273218160CF003C120
:103E9000CC0FDD1FCC0FDD1FC15CD94FC882D9828A
:103EA000EA82FB82F3C020E030E040E450E4C70146
:103EB000B6010E94273287FDF0C0C701B6010E94FB
:103EC0005F350E949B3260934C06E0C040934D06E4
:103ED00050934E0660934F0670935006D7C04093A0
:103EE0005106509352066093530670935406CEC009
:103EF000CB01BA010E94CA350E949B3260935506DD
:103F0000C5C0CB01BA010E945F350E949B3260930D
:103F10007206BCC020E030E040E752E4C701B601C1
:103F20000E94FC3420E030E040E752E40E94FC3480
:103F300060935A0670935B0680935C0690935D06CF
:103F4000A5C0E894F7F8C0925E06D0925F06E092B2
:103F50006006F09261069AC0409356065093570649
:103F6000609358067093590691C0CB01BA010E9424
:103F70005F350E949B326093740688C0CB01BA0102
:103F80000E945F350E949B32609373067FC020E0E1
:103F900030E0A901C701B6010E9427329091620664
:103FA000882311F091600EC09E7F0CC020E030E0AD
:103FB000A901C701B6010E942732909162068823A9
:103FC00021F092609093620661C09D7FFBCF20E05C
:103FD00030E0A901C701B6010E9427329091620624
:103FE000882311F09460EECF9B7FECCF20E030E08F
:103FF000A901C701B6010E94273290916206882369
:1040000011F0986001C0977F909362060E94542936
:104010003DC020E030E0A901C701B6010E9427326F
:1040200090916206882311F09061CCCF9F7ECACF19
:10403000CB01BA010E94CA350E949B32609363068D
:1040400025C040936406509365066093660670939E
:1040500067061CC0409368065093690660936A0621
:1040600070936B0613C0CB01BA010E945F350E94AA
:104070009B3270936D0660936C0608C040936E0689
:1040800050936F066093700670937106E5DD80E0D3
:1040900005C086E003C088E001C089E0DF91CF91D0
:1040A000FF90EF90DF90CF9008951F93CF93DF9311
:1040B000CDB7DEB72C970FB6F894DEBF0FBECDBFDD
:1040C000A9DE811105C08AE000D981E0D0DD97D951
:1040D00010E0BE016F5F7F4F812F7DDE811102C036
:1040E0008AE0F3D81F5F1830A1F72C960FB6F8942A
:1040F000DEBF0FBECDBFDF91CF911F9108952F92EC
:104100003F924F925F926F927F928F929F92AF9267
:10411000BF92CF92DF92EF92FF920F931F93CF93B4
:10412000DF931091D301812C912CC0E0D0E08BE380
:10413000C82E8091D201181709F479C0111101C05D
:1041400012E11150C19EC00111249C012C523E4F1E
:104150005901209709F468C08114910409F464C0DE
:10416000D98CEA8CFB8C0C8D2D2D3E2D4F2D502F94
:104170006D897E898F89988D0E942732882309F462
:1041800053C08AA1811146C0F401458856886788CA
:10419000708CA30192016D2D7E2D8F2D902F0E948A
:1041A0002A341816BCF5A3019201C301B2010E9482
:1041B000FC341B012C0180915A0690915B06A09162
:1041C0005C06B0915D06BC01CD0190589B01AC012D
:1041D0000E944E312D8D3E8D4F8D58A10E94FC3492
:1041E0009B01AC01C201B1010E944D310E94893591
:1041F000562E672E4C01262F372FAC016D2D7E2DAC
:104200008F2D902F0E94273287FD04C0D52CE62CDD
:10421000F82C092D8D2D9E2DAF2DB02F8D8B9E8BC3
:10422000AF8BB88FF1E0F9A34E01E50182CFDF91AA
:10423000CF911F910F91FF90EF90DF90CF90BF90A3
:10424000AF909F908F907F906F905F904F903F9036
:104250002F9008954F925F926F927F92AF92BF928C
:10426000CF92DF92EF92FF920F931F93CF93DF9342
:10427000009709F458C0FC0122A1211154C0EB01A0
:104280008C01458856886788708CAD88BE88CF8839
:10429000D88C9501A601C301B2010E94273287FF85
:1042A00042C0A3019201C301B2010E94FC342B0160
:1042B0003C0180915A0690915B06A0915C06B091FA
:1042C0005D06BC01CD0190589B01AC010E944E31AE
:1042D000F801258D368D478D50A10E94FC349B013D
:1042E000AC01C301B2010E944D310E9489357B01AE
:1042F0008C019B01AC01B501C6010E94273287FFEA
:1043000002C0750186019701A801B501C6010E948E
:104310002732882341F0C701D8018D8B9E8BAF8B4C
:10432000B88F81E089A3DF91CF911F910F91FF900A
:10433000EF90DF90CF90BF90AF907F906F905F90A5
:104340004F900895EF92FF920F931F93CF93DF93B7
:10435000C091D20110E0D0E080E090E00BE320912A
:10436000D301C21799F00C9F90011124A9014C525E
:104370005E4F7A01612F7D2F6DDFCF5FC23109F46F
:10438000C0E0812F9D2F1E2DDF2DE9CF612F7D2FC6
:10439000DF91CF911F910F91FF90EF905BCF4F92E4
:1043A0005F926F927F928F929F92AF92BF92CF92C5
:1043B000DF92EF92FF920F931F93CF93DF93CDB7CE
:1043C000DEB762970FB6F894DEBF0FBECDBF9A8BF3
:1043D000898B2A013B0148015901FC0167A970AD95
:1043E00081AD92AD0E94C7326B017C01A3019201A5
:1043F0000E94FC340E9414320E949B322B013C012B
:10440000E989FA8963A374A385A396A3A5019401FE
:10441000C701B6010E94FC340E9414320E949B32F4
:104420004B015C01E989FA8967A370A781A792A76C
:1044300023A534A545A556A5A2E3B0E00E941136F8
:104440000E94C93220E030E040E752E40E94FC3490
:104450000E94963269837A838B839C830E94C9323F
:104460006D837E838F839887C301B2010E94C73218
:104470002B013C01A7019601C701B6010E94FC3443
:104480006B017C01A3019201C301B2010E94FC34C3
:1044900069877A878B879C872D813E814F815885DC
:1044A000CA01B9010E944E316D877E878F87988B34
:1044B00029853A854B855C85C701B6010E944D313F
:1044C0002D853E854F8558890E942E320E941432D8
:1044D0000E9496322B013C01C501B4010E94C732F3
:1044E0009B01AC010E94FC344B015C01A7019601C9
:1044F0000E944D316B017C0169817A818B819C81A5
:1045000090958095709561957F4F8F4F9F4F0E943A
:10451000C9329B01AC010E944E319B01AC01C70125
:10452000B6010E942E320E940433E989FA89C584BB
:10453000D684E784F088A701960124193509460935
:10454000570929833A834B835C830E9496322981E1
:104550003A814B815C81261B370B480B590BDA01E2
:10456000C90157FF3BC0C701B6010E94C9322D8562
:104570003E854F8558890E94FC3429853A854B85B4
:104580005C850E944D31A50194010E944E314B0182
:104590005C0120E030E040E850E46D817E818F8155
:1045A00098850E94FC349B01AC01C501B4010E94B6
:1045B0002E320E9414320E94963297FF03C060E0B0
:1045C00070E0CB01260137016C157D058E059F0536
:1045D00014F42B013C0180E090E0DC01E989FA89C8
:1045E00047A650AA61AA72AA480E591E6A1E7B1ECF
:1045F00043AA54AA65AA76AA62960FB6F894DEBFBB
:104600000FBECDBFDF91CF911F910F91FF90EF9023
:10461000DF90CF90BF90AF909F908F907F906F90E2
:104620005F904F9008954F925F926F927F928F921A
:104630009F92AF92BF92CF92DF92EF92FF920F9331
:104640001F93CF93DF93F090D201C0E0D0E08BE3D3
:10465000E82E8091D301F81609F43FC08F2D90E029
:10466000E89E9001E99E300D1124A9014C525E4F45
:104670006A01209759F129A1211104C0FA0121A151
:10468000222321F189889A88AB88BC88E89EF001B2
:10469000E99EF00D1124EC52FE4FA50194016589AD
:1046A00076898789908D0E942E322B013C01A501CD
:1046B00094016D897E898F89988D0E942E32AB017D
:1046C000BC0193018201CE016ADE19A2F394F2E1EA
:1046D000FF1201C0F12CE601BCCFC988DA88EB8853
:1046E000FC88A701960160E070E0CB010E942E32A9
:1046F0004B015C01A70196016D897E898F89988D98
:104700000E942E32AB01BC0195018401CE0147DE2F
:1047100019A2DF91CF911F910F91FF90EF90DF9041
:10472000CF90BF90AF909F908F907F906F905F9051
:104730004F9008958091D3018093D2018091D3014D
:104740008F5F823109F480E08093D1010895F2DF18
:104750008CE1E5EBF1E0DF011D928A95E9F7089520
:104760009091D3018091D201981741F08091D201AC
:104770008F5F823109F480E08093D2010895909197
:10478000D3018091D201981749F08091D2012BE397
:10479000829FC00111248C529E4F089580E090E0CA
:1047A00008959091D20181E02091D101291380E0F8
:1047B0000895E5DF892B39F00E940E128091FA05E9
:1047C0008823B9F304C08091FB058330A9F30895D1
:1047D0002F923F924F925F926F927F928F929F9211
:1047E000AF92BF92CF92DF92EF92FF920F931F93FF
:1047F000CF93DF93CDB7DEB7E1970FB6F894DEBF66
:104800000FBECDBF29013A01E982FA820B831C83D6
:10481000AD8EBE8ECF8ED8A289AA2091D301222E32
:10482000312C00913F0610914006209141063091B5
:1048300042060D831E832F8338879B01AC016D8157
:104840007E818F8198850E94FC340E94CC346DA3B8
:104850007EA38FA398A720914306309144064091F0
:1048600045065091460629873A874B875C87A30106
:10487000920169857A858B859C850E94FC340E9413
:10488000CC3469A77AA78BA79CA740904706509085
:1048900048066090490670904A064D865E866F868F
:1048A000788A29813A814B815C81C301B2010E94DF
:1048B000FC340E94CC346DA77EA78FA798AB8BE306
:1048C000829DF001839DF00D1124EC52FE4F108269
:1048D0004091B5015091B6016091B7017091B80156
:1048E0004DA05EA06FA078A4441655066606770614
:1048F00014F482E08083C090B901D090BA01E090B6
:10490000BB01F090BC0149A45AA46BA47CA44C1434
:104910005D046E047F045CF48BE3829DF001839D53
:10492000F00D1124EC52FE4F808184608083009151
:10493000BD011091BE012091BF013091C001098BD2
:104940001A8B2B8B3C8B4DA45EA46FA478A84016C9
:104950005106620673065CF48BE3829DF001839D31
:10496000F00D1124EC52FE4F8081886080834DA0B1
:104970005EA06FA078A4441A550A660A770AC3019C
:10498000B20177FE07C0442455243201461A570A63
:10499000680A790A4BE3429D9001439D300D112432
:1049A000F901EC52FE4F418252826382748289A4E3
:1049B0009AA4ABA4BCA48C189D08AE08BF08898239
:1049C0009A82AB82BC82B7FE0BC0002711279801E8
:1049D000081919092A093B0909831A832B833C8387
:1049E0004BE3429D9001439D300D1124F901EC529F
:1049F000FE4F29813A814B815C8125833683478331
:104A00005087CDA4DEA4EFA4F8A809891A892B89C0
:104A10003C89C01AD10AE20AF30ACD8ADE8AEF8AFB
:104A2000F88EF7FE0BC022273327A9012C193D0968
:104A30004E095F092D8B3E8B4F8B588FEBE3E29D28
:104A4000A001E39D500D1124FA01EC52FE4F0D8997
:104A50001E892F89388D0187128723873487498AD9
:104A60005A8A6B8A7C8A29813A814B815C81421601
:104A700053066406750620F4298B3A8B4B8B5C8BAE
:104A800049885A886B887C880D891E892F89388DC2
:104A9000401651066206730610F4280139012BE313
:104AA000229D8001239D100D11240C521E4FD80110
:104AB0001D964D925D926D927C92509741145104D7
:104AC0006104710409F48DC20E94C9322D813E81B6
:104AD0004F8158850E942E326D8B7E8B8F8B988FE5
:104AE000C501B4010E94C93229853A854B855C8590
:104AF0000E942E32698F7A8F8B8F9C8FC701B601EF
:104B00000E94C9322D853E854F8558890E942E32DC
:104B100069A37AA38BA39CA32D893E894F89588DC5
:104B2000CA01B9010E94FC346B017C01298D3A8DC8
:104B30004B8D5C8DCA01B9010E94FC349B01AC0114
:104B4000C701B6010E944E316B017C0129A13AA137
:104B50004BA15CA1CA01B9010E94FC349B01AC01CC
:104B6000C701B6010E944E310E948935698B7A8B4C
:104B70008B8B9C8BF801658F768F878F90A39B0121
:104B8000AC0160E070E080E89FE30E942E326B0190
:104B90007C0109A92D8D3E8D4F8D58A1011103C0B7
:104BA0000E94FC3406C060E070E080E89FE30E9451
:104BB0002E324B015C0129893A894B895C890E941C
:104BC000FC3469837D8389879D878BE3829D800187
:104BD000839D100D11240C521E4FCB01A985BD855C
:104BE000F801818B928BA38BB48BC301B2010E941D
:104BF000C9322B013C019B01AC01C501B4010E94EB
:104C0000FC340E9414320E949B32D801D7966D93D7
:104C10007D938D939C93DA9720915A0630915B0691
:104C200040915C0650915D062D8F3E8F4F8F58A3AB
:104C3000A3019201C701B6010E94FC342D8D3E8D67
:104C40004F8D58A10E94FC3420E030E84BE355E43E
:104C50000E942E320E9414320E949632D8019B96F6
:104C60006D937D938D939C939E97A70196016D897B
:104C70007E898F89988D0E94FC346D8B7E8B8F8B03
:104C8000988FA7019601698D7A8D8B8D9C8D0E94DE
:104C9000FC34698F7A8F8B8F9C8FA701960169A155
:104CA0007AA18BA19CA10E94FC342B013C01909124
:104CB000D3018091D201981709F4B7C0E090CD01DB
:104CC000F090CE010091CF011091D00120E030E0B2
:104CD000A901B701C8010E942A3418160CF0A5C01A
:104CE0008091C1019091C201A091C301B091C40112
:104CF000BC01CD0190582D893E894F89588D0E9465
:104D0000FC344B015C012091C5013091C6014091FA
:104D1000C7015091C801698D7A8D8B8D9C8D0E9441
:104D2000FC349B01AC01C501B4010E944D314B0123
:104D30005C012091C9013091CA014091CB01509191
:104D4000CC01C301B2010E94FC349B01AC01C5013E
:104D5000B4010E944D314B015C0123E333E343E78F
:104D60005FE30E94273287FF60C09701A801698135
:104D70007D8189859D850E942A34181624F0E9805A
:104D8000FD8009851D8523E333E343E75FEBC50120
:104D9000B4010E942A3418160CF04BC0A5019401EE
:104DA00060E070E080E89FE30E944D3120E030E059
:104DB00040E05FE30E94FC340E9489354B015C01B6
:104DC00020915E0630915F06409160065091610629
:104DD0006D8D7E8D8F8D98A10E94FC34A50194016C
:104DE0000E94FC3469A37AA38BA39CA3A501940120
:104DF00060E070E080E89FE30E944D319B01AC01D0
:104E000069A17AA18BA19CA10E942E320E948935B2
:104E10005B016C019B01AC01B701C8010E94273204
:104E200087FD07C07501860104C0E12CF12C00E06C
:104E300010E08BE3829DF001839DF00D1124EC5274
:104E4000FE4FC701D801818F928FA38FB48F6D8DD4
:104E50007E8D8F8D98A190589B01AC010E944E31A0
:104E600029893A894B895C890E94FC349B01AC01F9
:104E700060E070E0CB010E944D310E9489355B01FA
:104E80006C019B01AC01B701C8010E94273287FD6C
:104E900004C075019C2D8D2D02C0902F812F2BE316
:104EA000229D8001239D100D11240C521E4FA7013D
:104EB000692F782FF801458B568B678B708F950182
:104EC000A60169817D8189859D850E9427321816FA
:104ED0002CF081E0D80192968C9302C0F80112A2C6
:104EE0008BE3829DF001839DF00D1124EC52FE4F67
:104EF00081E081A30D891E892F89388D0093C1011E
:104F00001093C2012093C3013093C401298D3A8DBF
:104F10004B8D5C8D2093C5013093C6014093C70132
:104F20005093C8014092C9015092CA016092CB01CE
:104F30007092CC0189819D81A985BD858093CD0129
:104F40009093CE01A093CF01B093D0018091D10175
:104F50008093D3018091D3018F5F823109F480E087
:104F60008093D1014DA05EA06FA078A44092B501BE
:104F70005092B6016092B7017092B80149A45AA448
:104F80006BA47CA44092B9015092BA016092BB011B
:104F90007092BC014DA45EA46FA478A84092BD019C
:104FA0005092BE016092BF017092C001A8D8CAD9C8
:104FB000E1960FB6F894DEBF0FBECDBFDF91CF9163
:104FC0001F910F91FF90EF90DF90CF90BF90AF9027
:104FD0009F908F907F906F905F904F903F902F9019
:104FE00022CBE1960FB6F894DEBF0FBECDBFDF91A6
:104FF000CF911F910F91FF90EF90DF90CF90BF90D6
:10500000AF909F908F907F906F905F904F903F9068
:105010002F900895EF92FF920F931F93E5EBF1E02D
:10502000608371838283938324833583468357838C
:10503000E086F186028713871F910F91FF90EF9012
:1050400008958F929F92AF92BF92CF92DF92EF928C
:10505000FF92CF93DF936B017C01C091D2018BE370
:10506000C89FE0011124CC52DE4FC701B6010E9457
:10507000C9322D8D3E8D4F8D58A10E94FC344B01BD
:105080005C016D857E858F8598890E94C9329B0160
:10509000AC01C501B4010E942E326D8F7E8F8F8FBF
:1050A00098A3CD86DE86EF86F88A1D8A1E8A1F8A1F
:1050B000188E198E1A8E1B8E1C8E1AA281E089A35F
:1050C0001ED840D9DF91CF91FF90EF90DF90CF9025
:1050D000BF90AF909F908F90A6CA4F925F926F92B1
:1050E0007F92AF92BF92CF92DF92EF92FF920F9397
:1050F0001F93CF93DF937C016B015A01FB01C081A9
:10510000D0E0FC01EC0FFD1F80818D3229F4EF010E
:105110002296818101E00AC08B3221F02196CE0DCA
:10512000DF1D03C0EF012296818100E0712CF0E0C9
:1051300010E020E030E0A901E0EDE80FEA30D0F423
:10514000FF5FF93098F471101150A5E0B0E00E94B3
:105150001136DC01CB01880F991FAA1FBB1F9C01D0
:10516000AD012E0F311D411D511D0AC0711008C027
:105170001F5F06C0EE3F31F4711004C077247394B2
:105180008991DACFFF2309F449C0CA01B9010E940D
:10519000C7322B013C0120E030E0A9010E942732F8
:1051A000882349F11F3F64F42AE037ED43E25CE3D2
:1051B000C301B2010E94FC342B013C011E5FF2CFFF
:1051C0001F3F59F42DEC3CEC4CEC5DE3C301B20104
:1051D0000E94FC342B013C010EC0112361F020E041
:1051E00030E040E251E4C301B2010E94FC342B01E3
:1051F0003C011150F2CF002321F077FA709477F838
:105200007094F5014082518262827382CE19DF0967
:10521000C150F601C08381E090E002C080E090E0E0
:10522000DF91CF911F910F91FF90EF90DF90CF9082
:10523000BF90AF907F906F905F904F9008950097D0
:1052400041F0EFE9FFE03197F1F700C0000001976E
:10525000F6CF0895EF92FF920F931F93CF93DF93B2
:10526000CAEFD5E0EB84FC840D851E852F8138853F
:1052700049855A856B817C818D819E81CBDEEB8453
:10528000FC840D851E852F81388549855A856B8163
:105290007C818D819E810E942409DF91CF911F9195
:1052A0000F91FF90EF90089584B184B985B185B9CD
:1052B0008091620683FF08C080916B0080936B0031
:1052C00080916800816007C080916B0080936B00C3
:1052D000809168008E7F8093680008951F920F92DE
:1052E0000FB60F9211242F933F934F935F936F93B9
:1052F0007F938F939F93AF93BF93EF93FF9380918F
:10530000FB05863059F08091FC0585FD07C00E94A1
:10531000BE088091FC0580648093FC05FF91EF91AD
:10532000BF91AF919F918F917F916F915F914F91BD
:105330003F912F910F900FBE0F901F901895CF9314
:10534000DF93EC018991882319F00E94D511FACFDF
:10535000DF91CF910895CF93DF93FC018491EF010A
:105360002196882321F00E94D511FE01F7CFDF910D
:10537000CF910895EF92FF920F931F93CF93DF93F6
:10538000CDB7DEB728970FB6F894DEBF0FBECDBFFE
:105390009E012F5F3F4F79018E01075F1F4FF9017B
:1053A000982F9170919386950E171F07C9F7F801F2
:1053B00082918F01805D0E94D5110E151F05B9F7EE
:1053C00028960FB6F894DEBF0FBECDBFDF91CF9108
:1053D0001F910F91FF90EF9008958F929F92AF923F
:1053E000BF92CF92DF92EF92FF92CF93DF93CDB730
:1053F000DEB72A970FB6F894DEBF0FBECDBF6B01A4
:105400007C0197FF0BC08DE20E94D511F094E094CF
:10541000D094C094C11CD11CE11CF11CC701B60181
:10542000CD28CE28CF2899F480E32A960FB6F89499
:10543000DEBF0FBECDBFDF91CF91FF90EF90DF9029
:10544000CF90BF90AF909F908F900C94D51120E09B
:105450004AE0842E912CA12CB12CFF24F394F20E5F
:10546000CC24C394D12CCC0EDD1EC20ED11CA501C0
:1054700094010E94E935605DF6016083B901CA01BB
:105480002F2D611571058105910539F7FF2041F038
:10549000FE01EF0DF11D80810E94D511FA94F6CF27
:1054A0002A960FB6F894DEBF0FBECDBFDF91CF9125
:1054B000FF90EF90DF90CF90BF90AF909F908F9034
:1054C00008958F929F92AF92BF92CF92DF92EF9208
:1054D000FF920F931F93CF93DF93CDB7DEB72A9739
:1054E0000FB6F894DEBF0FBECDBF6B017C0120E08C
:1054F00030E0A901ACD787FF07C08DE20E94D5112B
:10550000F7FAF094F7F8F09400917306102F123028
:1055100060F020E030E048EC52E4C701B6010E94A0
:10552000FC346B017C011250F2CF00FF0AC020E076
:1055300030E040E251E4C701B6010E94FC346B0147
:105540007C0120E030E040E05FE3C701B601A6D671
:10555000EDD7E1E0F0E0EC0FFD1FE00FF11D2EE2D2
:10556000208310E03AE0832E912CA12CB12C611500
:10557000710581059105A9F0101301C01F5FEE248C
:10558000E394F12CEC0EFD1EE10EF11CA50194013B
:105590000E94E935605DF7016083B901CA011F5FB0
:1055A000E6CF80E3101748F4E1E0F0E0EC0FFD1FD8
:1055B000E10FF11D80831F5FF5CF10130BC081E059
:1055C000810FE1E0F0E0EC0FFD1FE80FF11D1E5F21
:1055D00080E38083112341F0FE01E10FF11D808102
:1055E0000E94D5111150F6CF2A960FB6F894DEBF5F
:1055F0000FBECDBFDF91CF911F910F91FF90EF9024
:10560000DF90CF90BF90AF909F908F900895292FFB
:1056100033272230310559F02330310569F021302C
:105620003105F9F482E190E026EA38E01EC08EE30D
:1056300090E028E638E019C099278130910541F0C3
:105640008230910541F0892B61F4E4E6F8E005C071
:10565000EAE4F8E002C0ECE2F8E0849190E09F0117
:1056600004C080E090E020E030E0FA013183208344
:105670000895982F973058F59093E900981739F0CE
:105680007091EC002091ED005091F00003C0242FA8
:10569000762F50E021FF19C03091EB003E7F309310
:1056A000EB003091ED003D7F3093ED003091EB0049
:1056B00031603093EB007093EC002093ED00509339
:1056C000F0002091EE0027FF07C09F5FD3CF8F70BF
:1056D0008093E90081E0089580E008950F931F937F
:1056E000CF93DF93062FEC0110E0101771F1988132
:1056F000992341F12C81E981FA817B81892F8F7077
:10570000873010F080E022C0223010F056E001C057
:1057100052E028E030E040E02E173F0720F44F5FD2
:10572000220F331FF9CF4295407F452B692F661F0B
:105730006627661F90E4799F90011124622B99DF00
:10574000882301F31F5F2596D0CF81E0DF91CF91B1
:105750001F910F91089580917A0687FD05C0809171
:10576000E80080FF0EC012C08091E80082FD05C0F5
:10577000809179068111F8CF08958091E8008B77A8
:1057800008C0809179068111EACF08958091E800E0
:105790008E778093E80008958091E4009091E50071
:1057A00045E62091EC0020FF21C02091E80020FD7B
:1057B00021C020917906222389F0253089F020919B
:1057C000EB0025FD0FC02091E4003091E500281783
:1057D000390739F3415041F0C901E3CF82E0089520
:1057E00083E0089581E0089584E008952091E80021
:1057F00022FFDFCF80E008950F931F93CF93DF93B5
:105800004BD052D0C8EDD0E088818F7788838881D3
:105810008068888388818F7D888319BC109279067F
:1058200010927506109277061092760600EE10E040
:10583000F80180818B7F808388818160888342E04A
:1058400060E080E016DFE1EEF0E080818E7F808313
:10585000E2EEF0E0808181608083808188608083D7
:10586000F80180818E7F8083888180618883DF91C9
:10587000CF911F910F910895E8EDF0E080818F7E28
:105880008083E7EDF0E080818160808384E082BFE7
:1058900081E080937806B0CFE8EDF0E080818E7FE4
:1058A00080831092E20008951092DA001092E100D5
:1058B00008951F920F920FB60F9211242F933F93CA
:1058C0004F935F936F937F938F939F93AF93BF9308
:1058D000EF93FF938091E10082FF0AC08091E20084
:1058E00082FF06C08091E1008B7F8093E100E8D2C7
:1058F0008091DA0080FF1DC08091D80080FF19C020
:105900008091DA008E7F8093DA008091D90080FF49
:105910000CC080E189BD82E189BD09B400FEFDCFE4
:1059200081E080937906CCD204C019BC109279062C
:10593000C7D28091E10080FF18C08091E20080FF13
:1059400014C08091E2008E7F8093E2008091E2009B
:1059500080618093E2008091D80080628093D800BB
:1059600019BC85E080937906ABD28091E10084FF79
:105970002DC08091E20084FF29C080E189BD82E1D1
:1059800089BD09B400FEFDCF8091D8008F7D809342
:10599000D8008091E1008F7E8093E1008091E20049
:1059A0008F7E8093E2008091E20081608093E2002C
:1059B00080917506811104C08091E30087FF02C0C9
:1059C00084E001C081E0809379067AD28091E10081
:1059D00083FF27C08091E20083FF23C08091E10014
:1059E000877F8093E10082E08093790610927506AC
:1059F0008091E1008E7F8093E1008091E2008E7FB4
:105A00008093E2008091E20080618093E20042E0B6
:105A100060E080E02EDE8091F00088608093F000EE
:105A20004FD2FF91EF91BF91AF919F918F917F9155
:105A30006F915F914F913F912F910F900FBE0F90FB
:105A40001F9018951F920F920FB60F9211242F934B
:105A50003F934F935F936F937F938F939F93AF93F6
:105A6000BF93CF93EF93FF93C091E900CF708091E4
:105A7000EC001092E9008091F000877F8093F000A5
:105A80007894D4D01092E9008091F00088608093DF
:105A9000F000C093E900FF91EF91CF91BF91AF91DA
:105AA0009F918F917F916F915F914F913F912F9136
:105AB0000F900FBE0F901F90189520918006309187
:105AC00081062617370748F06115710539F42091D2
:105AD000E8002E772093E80001C0B901FC0120E026
