:100000005BC4000075C4000073C4000071C400002C
:100010006FC400006DC400006BC4000069C4000020
:1000200067C400000C941E290C940B2C0C94D42C47
:100030005FC400005DC400005BC4000059C4000040
:1000400057C400000C94321453C4000051C4000083
:100050004FC400004DC400004BC400000C94541861
:1000600047C4000045C4000043C4000041C4000070
:100070003FC400003DC400003BC4000039C4000080
:1000800037C4000035C4000033C4000031C4000090
:100090002FC400002DC400002BC4000029C40000A0
:1000A00027C4000025C4000023C40000760B5B0BAE
:1000B000A00CBB0BBB0BBB0BE70B5B0B5B0BA00CD8
:1000C000F10BA00CF60B120C210CA00CA00CA00C38
:1000D0003A0C5C0C7E0CC90CDF0C6A0D0E0E6A0D1E
:1000E0000E0E190E570E0D1910191319161919198C
:1000F0001C191F192219251928192B192E19311904
:10010000011B041B071B0A1B0D1B101B131B781C58
:100110008E1C7B1C7E1C811C841C871C8A1CFD1E63
:10012000FD1EFD1E121F251F2E1F371F401F491FBA
:10013000601F6B1F741F7D1F861F951FA61FB51F95
:10014000C81FD71FE01FE91FF21FFD1FF12D132E3F
:10015000F92E132EF92E552E782EF92ECA2EDC2EBE
:10016000084AD73B3BCE016E84BCBFFDC12F3D6C1E
:1001700074319ABD56833DDA3D00C77F11BED9E484
:10018000BB4C3E916BAAAABE000000803F05A84C64
:10019000CDB2D44EB93836A9020C50B99186880830
:1001A0003CA6AAAA2ABE000000803F000D0A272410
:1001B0002720746F2064756D702063757272656E90
:1001C000742073657474696E67730D0A000D0A00FC
:1001D0000D0A4772626C003E0D0A002C0057506FEA
:1001E000733A002C002C4D506F733A003C43686505
:1001F000636B003C416C61726D003C486F6D650043
:100200003C486F6C64003C52756E003C51756575DE
:1002100065003C49646C65000D0A003D00244E00F9
:100220005D0D0A00204600205400204D3500204D71
:100230003400204D3300204D3200204D3100204D40
:100240003000204739340020473933002047393106
:10025000002047393000204732310020473230003B
:1002600020473139002047313800204731370020FE
:1002700047005B473830005B4733005B4732005B29
:100280004731005B4730005D0D0A002C005B4739A9
:10029000323A005D0D0A002C0033303A0032383A11
:1002A0000035393A0035383A0035373A0035363AB4
:1002B0000035353A0035343A005B47002028686F36
:1002C0006D696E672070756C6C2D6F66662C206D85
:1002D0006D290D0A002028686F6D696E67206465BE
:1002E000626F756E63652C206D736563290D0A243A
:1002F00032323D002028686F6D696E672073656536
:100300006B2C206D6D2F6D696E290D0A2432313DE5
:10031000002028686F6D696E6720666565642C2013
:100320006D6D2F6D696E290D0A2432303D00290D47
:100330000A2431393D002028686F6D696E6720649A
:10034000697220696E76657274206D61736B2C2002
:10035000696E743A002028686F6D696E6720637952
:10036000636C652C20626F6F6C290D0A2431383D57
:1003700000202868617264206C696D6974732C2098
:10038000626F6F6C290D0A2431373D002028696E99
:1003900076657274207374657020656E61626C6539
:1003A0002C20626F6F6C290D0A2431363D00202805
:1003B0006175746F2073746172742C20626F6F6C3E
:1003C000290D0A2431353D0020287265706F727442
:1003D00020696E636865732C20626F6F6C290D0A4B
:1003E0002431343D0020286E2D646563696D616C95
:1003F000732C20696E74290D0A2431333D002028A6
:100400006E2D61726320636F7272656374696F6EC3
:100410002C20696E74290D0A2431323D0020286198
:1004200072632C206D6D2F7365676D656E74290D79
:100430000A2431313D0020286A756E6374696F6E3D
:1004400020646576696174696F6E2C206D6D290D6D
:100450000A2431303D002028616363656C65726158
:1004600074696F6E2C206D6D2F7365635E32290D7C
:100470000A24393D002028737465702069646C6516
:100480002064656C61792C206D736563290D0A24E5
:10049000383D00290D0A24373D002028737465700B
:1004A00020706F727420696E76657274206D61734E
:1004B0006B2C20696E743A00202864656661756C47
:1004C00074207365656B2C206D6D2F6D696E290D21
:1004D0000A24363D00202864656661756C742066C8
:1004E0006565642C206D6D2F6D696E290D0A2435AC
:1004F0003D002028737465702070756C73652C2026
:1005000075736563290D0A24343D0020287A2C2058
:10051000737465702F6D6D290D0A24333D002028FA
:10052000792C20737465702F6D6D290D0A24323D6E
:10053000002028782C20737465702F6D6D290D0AAA
:1005400024313D0024303D0024242028766965773D
:10055000204772626C2073657474696E6773290D2D
:100560000A24232028766965772023207061726130
:100570006D6574657273290D0A24472028766965B4
:100580007720706172736572207374617465290DD0
:100590000A244E2028766965772073746172747519
:1005A0007020626C6F636B73290D0A24783D76614D
:1005B0006C7565202873617665204772626C2073C4
:1005C000657474696E67290D0A244E783D6C696EF6
:1005D000652028736176652073746172747570206C
:1005E000626C6F636B290D0A24432028636865637E
:1005F0006B2067636F6465206D6F6465290D0A2445
:100600005820286B696C6C20616C61726D206C6F76
:10061000636B290D0A2448202872756E20686F6D5F
:10062000696E67206379636C65290D0A7E202863F3
:1006300079636C65207374617274290D0A21202816
:100640006665656420686F6C64290D0A3F20286325
:10065000757272656E7420737461747573290D0AF6
:100660006374726C2D7820287265736574204772EC
:10067000626C290D0A000D0A416E616C6F67204F94
:10068000757470757420496E697469616C697A65F6
:10069000640D0A000D0A4772626C20302E38632008
:1006A0005B27242720666F722068656C705D0D0AD9
:1006B000005D0D0A0044697361626C656400456EFB
:1006C00061626C65640043617574696F6E3A2055B0
:1006D0006E6C6F636B656400272448277C27245861
:1006E0002720746F20756E6C6F636B0052657365A5
:1006F0007420746F20636F6E74696E7565005B00A3
:100700002E204D506F733F0D0A0041626F727420AE
:10071000647572696E67206379636C650048617205
:1007200064206C696D697400414C41524D3A20005F
:100730000D0A004C696E65206F766572666C6F7786
:1007400000416C61726D206C6F636B004275737950
:10075000206F722071756575656400454550524F74
:100760004D2072656164206661696C2E2055736945
:100770006E672064656661756C74730056616C7594
:1007800065203C203320757365630056616C756588
:10079000203C20302E300053657474696E672064ED
:1007A000697361626C656400496E76616C6964208E
:1007B00073746174656D656E74004D6F64616C2057
:1007C00067726F75702076696F6C6174696F6E0007
:1007D000496E76616C696420726164697573005555
:1007E0006E737570706F7274656420737461746574
:1007F0006D656E7400457870656374656420636F21
:100800006D6D616E64206C65747465720042616424
:10081000206E756D62657220666F726D6174006521
:1008200072726F723A20006F6B0D0A001C034C004D
:1008300055004600410020004300440043002000D2
:10084000440065006D006F0000001803440065005F
:1008500061006E002000430061006D0065007200C1
:10086000610000000403090409023E00020100C007
:10087000FA0904000001020201000524001001042D
:100880002402060524060001070582030800FF096B
:10089000040100020A000000070504021000050719
:1008A0000583021000051201100102000008412317
:1008B000368001000102DC0111241FBECFEFDAE017
:1008C000DEBFCDBF11E0A0E0B1E0ECE2FCE602C08B
:1008D00005900D92A032B107D9F726E0A0E2B1E071
:1008E00001C01D92A238B207E1F703D00C94143670
:1008F00087CB0E9416110E9414200E9476187894CB
:1009000080E1EAEFF5E0DF011D928A95E9F781E0E9
:100910008093FA058093FB05C1E08091FA05882356
:1009200011F10E9476110E945B2367D40E94881106
:100930000E9404290E9463180E94C6281092FA059A
:100940001092FC058091620681FDC093090680919A
:10095000FB05863021F482E00E94541904C01092F5
:10096000FB050E948D110E94AA110E943411D5CF5F
:100970004F925F926F927F928F92AF92BF92CF927F
:10098000DF92EF92FF920F931F93CF93DF93CDB738
:10099000DEB728970FB6F894DEBF0FBECDBF2B0190
:1009A0003C01E982FA820B831C838091FB0587302E
:1009B000E1F12D833E834F8358870E94AA118091D5
:1009C000FA05811132C00E9485232D813E814F811D
:1009D00058858111EECFE980FA800B811C81C3011B
:1009E000B2010E949C238091FB05811103C082E02B
:1009F0008093FB05809109068823B9F028960FB6ED
:100A0000F894DEBF0FBECDBFDF91CF911F910F9144
:100A1000FF90EF90DF90CF90BF90AF908F907F903E
:100A20006F905F904F900C949F1828960FB6F89493
:100A3000DEBF0FBECDBFDF91CF911F910F91FF9011
:100A4000EF90DF90CF90BF90AF908F907F906F909E
:100A50005F904F9008952F923F924F925F926F92C6
:100A60007F928F929F92AF92BF92CF92DF92EF923E
:100A7000FF920F931F93CF93DF93CDB7DEB7EB9722
:100A80000FB6F894DEBF0FBECDBF2C017A8F698FF1
:100A90003A012F8F0DA3EFA2A9A2BAA2CBA2DCA28A
:100AA00089A634E0239F80011124400F511F5BA7CA
:100AB0004AA7DA01CD90DD90ED90FC90FC01E00FAB
:100AC000F11F2081318142815381C701B6010E940B
:100AD00000316CA77DA78EA79FA7EDA1B4E0EB9F87
:100AE000100111249301220D331D39AB28ABD9011C
:100AF0008D909D90AD90BC90F201E20DF31D208190
:100B0000318142815381C501B4010E9400316AAB39
:100B10007BAB8CAB9DABEFA1B4E0EB9FC00111248C
:100B2000F201E80FF91F20813181428153812D8B21
:100B30003E8B4F8B588FE98DFA8DE80FF91F60813E
:100B40007181828193810E94FF306B8F7C8F8D8FAA
:100B50009E8F2601370177FA709477F87094D5014B
:100B6000C401B0588D879E87AF87B88BE98DFA8D09
:100B7000E00FF11F2CA53DA54EA55FA560817181F9
:100B8000828193810E94FF306B017C01E98DFA8D97
:100B9000E20DF31D2AA93BA94CA95DA960817181D1
:100BA000828193810E94FF304B015C01A701960175
:100BB000C301B2010E94AE34698B7A8B8B8B9C8B04
:100BC000A50194016D857E858F8598890E94AE343C
:100BD0009B01AC0169897A898B899C890E940031CB
:100BE000698B7A8B8B8B9C8BA5019401C301B2011D
:100BF0000E94AE344B015C01A70196016D857E8594
:100C00008F8598890E94AE349B01AC01C501B40167
:100C10000E94FF3029893A894B895C890E9473318F
:100C20006B017C0165968FAD659720E030E0A901EE
:100C3000882379F0C701B6010E94DC3387FD19C013
:100C40002BED3FE049EC50E4C701B6010E94FF30B4
:100C50000EC0C701B6010E94D931181654F02BED11
:100C60003FE049EC50E4C701B6010E9400316B013E
:100C70007C0164962CAD3DAD4EAD5FAD6497C70170
:100C8000B6010E94AE342B8D3C8D4D8D5E8D0E9441
:100C9000E9334B015C0120E030E0A9010E94D93129
:100CA000882309F4A6C12091560630915706409139
:100CB000580650915906C501B4010E94E0310E94C6
:100CC000B6320E944D327FAB6EAB4B01A12CB12CE2
:100CD00099A5992381F0C501B4010E9479329B0145
:100CE000AC0169A17AA18BA19CA10E94AE3469A339
:100CF0007AA38BA39CA3C501B4010E9479324B0156
:100D00005C019B01AC01C701B6010E94E031698B17
:100D10007A8B8B8B9C8BA50194016B8D7C8D8D8D3B
:100D20009E8D0E94E03168AF79AF8AAF9BAF20E023
:100D300030E040E05FE369897A898B899C890E9471
:100D4000AE3429893A894B895C890E94AE349B0173
:100D5000AC0160E070E080E89FE30E94FF306B8FA1
:100D60007C8F8D8F9E8FE1E0F0E0EC0FFD1FBFA127
:100D7000A4E0BA9FE00DF11D11242D893E894F8911
:100D8000588D2083318342835383912C22242394D2
:100D9000312C41E050E04C0F5D1F9F8D84E0989F07
:100DA000400D511D112458A74FA3A1E0B0E0AC0F96
:100DB000BD1F3DA124E0329FA00DB11D1124BEA393
:100DC000ADA3F8A3EF8FEEA9FFA92E163F0608F0FA
:100DD000F8C08091740690E0292D332727FD3095C7
:100DE00028173907F4F52B8D3C8D4D8D5E8D6D8563
:100DF0007E858F8598890E94AE346B017C0129899C
:100E00003A894B895C89C301B2010E94AE34A701C3
:100E100096010E9400317B018C012B8D3C8D4D8D04
:100E20005E8DC301B2010E94AE342B013C012989C1
:100E30003A894B895C896D857E858F8598890E946A
:100E4000AE349B01AC01C301B2010E94FF302B0103
:100E50003C019394A701B8014D875E876F87788B1B
:100E600064C0B10180E090E00E94793229893A891A
:100E70004B895C890E94AE346B017C010E94DD319C
:100E80006D877E878F87988BC701B6010E943135A9
:100E90004B015C01AAA5BBA5CD90DD90ED90FC9027
:100EA000F7FAF094F7F8F094A8A9B9A92D913D911B
:100EB0004D915C912D8B3E8B4F8B588F2D853E85B0
:100EC0004F855889C701B6010E94AE342B013C0101
:100ED000A50194016D897E898F89988D0E94AE3419
:100EE0009B01AC01C301B2010E9400312B013C0106
:100EF000A5019401C701B6010E94AE346B017C01CB
:100F00002D853E854F8558896D897E898F89988D7D
:100F10000E94AE349B01AC01C701B6010E94FF30B4
:100F20006D877E878F87988B912CA30192016CA58A
:100F30007DA58EA59FA50E940031EFA1F8A5608335
:100F40007183828393832D853E854F8558896AA955
:100F50007BA98CA99DA90E940031ADA1BEA16D9372
:100F60007D938D939C93139728AD39AD4AAD5BADBE
:100F7000EF8DF8A160817181828193810E9400319F
:100F8000AF8DB8A16D937D938D939C931397E98456
:100F9000FA840B851C852D813E814F81588569819E
:100FA0007A818B819C8189A4A9A0BAA0CBA0DCA066
:100FB000DFDC8091FA0581111CC0BFEF2B1A3B0AC0
:100FC00002CFA98DBA8D1896ED90FD900D911C91D0
:100FD0001B9714962D913D914D915C9117976D91B2
:100FE0007D918D919C9189A4A9A0BAA0CBA0DCA0F1
:100FF000BFDCEB960FB6F894DEBF0FBECDBFDF911E
:10100000CF911F910F91FF90EF90DF90CF90BF9005
:10101000AF909F908F907F906F905F904F903F9098
:101020002F9008958F929F92AF92BF92CF92DF92AE
:10103000EF92FF924B015C0120E030E040EA51E486
:101040000E94AE340E94B6320E944D326B017C0188
:101050000E948D2320E030E04AE754E4C501B4014A
:101060000E94AE344B015C0182E38C9DB0018D9DEA
:10107000700D112480E090E00E9479329B01AC0158
:10108000C501B4010E94FF300E94B6320E944D3269
:10109000CB010E94BB28C114D10499F00E94AA116F
:1010A00021E0C21AD1088091FA0581110AC08FEFA0
:1010B00090E722E0815090402040E1F700C000001E
:1010C000EACFFF90EF90DF90CF90BF90AF909F90CE
:1010D0008F9008958F92AF92BF92CF92DF92EF924E
:1010E000FF920F931F9385E08093FB0580916B0027
:1010F00080936B000E94AA118091FA05811134C07F
:101100008CE0EDEFF5E0DF011D928A95E9F70E9492
:10111000C6281092FB0520E030E0A90160916E0620
:1011200070916F0680917006909171060E94AE34A6
:10113000A0906806B0906906C0906A06D0906B06D1
:10114000812C7B018C019B01AC0112DC0E949F1859
:101150000E948D230E94C6288091620683FF04C0EE
:1011600080916B0080936B001F910F91FF90EF9027
:10117000DF90CF90BF90AF908F9008958091FC0545
:1011800084FD11C08091FC0580618093FC058091F5
:10119000FB058350833038F48091FC058062809396
:1011A000FC050C941A140895CF93DF93DC01CA0157
:1011B000F9012081EA01C20FD11D28812223A9F063
:1011C0002C9321542A3120F082E080930A060DC02E
:1011D00020812F5F2083AB01BF010E940B28009765
:1011E00039F421E020930A0605C080E090E002C0B7
:1011F00081E090E0DF91CF91089585E3EAE0F6E0A9
:10120000DF011D928A95E9F780914D0690914E0677
:10121000A0914F06B091500680931206909313064A
:10122000A0931406B093150681E08093240692E003
:101230009093250680930E0667E276E080E00E9498
:10124000AA1E811103C08AE00C94F71808958F92AA
:101250009F92AF92BF92CF92DF92EF92FF920F9345
:101260001F9349015A01670178010E947B32209146
:101270003F063091400640914106509142060E943F
:10128000E0316093160670931706809318069093CA
:101290001906C501B4010E947B32209143063091AA
:1012A000440640914506509146060E94E031609305
:1012B0001A0670931B0680931C0690931D06C701A7
:1012C000B6010E947B32209147063091480640913A
:1012D000490650914A060E94E03160931E067093C1
:1012E0001F0680932006909321061F910F91FF9077
:1012F000EF90DF90CF90BF90AF909F908F90089528
:101300002F923F924F925F926F927F928F929F9215
:10131000AF92BF92CF92DF92EF92FF920F931F9303
:10132000CF93DF93CDB7DEB7E5970FB6F894DEBF66
:101330000FBECDBF3C018091FB05863009F45CC730
:101340001AA6FE0179968CE0DF01282F1D922A95BE
:10135000E9F7FE013D96DF011D928A95E9F71092AB
:101360000A06512C18AA212C312C05E013E0912EED
:1013700084E0B82EAA24A39492E0892E9E01265DD3
:101380003F4FA301BE016B5D7F4FCE0189960CDFFD
:10139000892B09F47CC1CDA0DEA0EFA0F8A4C70181
:1013A000B6010E947C350E944832CB0129A5273422
:1013B00021F02D3409F41AC1E1CF6E317105A9F184
:1013C000C4F46431710574F46131710594F56430CD
:1013D000710559F11CF477FF2AC033C06A307105DA
:1013E00021F12FC06631710544F16C31710549F569
:1013F0001CC06C3571058CF46A357105E4F46C33EE
:1014000071053CF466337105D4F46533710569F0F8
:1014100018C06035710559F014C06C35710529F09C
:101420006F35710574F416E00DC011E00BC012E0C9
:1014300009C013E007C014E005C017E003C019E0BD
:1014400001C010E08531910509F482C0BCF58430FB
:10145000910509F466C0ACF48130910509F464C0CB
:1014600034F4892B09F0F3C010920B06FBC08230D4
:10147000910509F45CC0039709F0E9C090920B064E
:10148000F1C08231910509F455C074F48A30910598
:1014900009F4E0C0419709F0DAC010922306A09247
:1014A000240680922506DEC08331910509F449C0E7
:1014B000449709F0CCC0A0920D06D4C080359105A8
:1014C00009F473C09CF48533910509F46BC03CF4B6
:1014D0008C31910509F43FC04E97E9F1B8C0CC9723
:1014E0000CF0B5C0665360932606BCC08C359105E0
:1014F00009F461C05CF48A35910509F459C08B3553
:10150000910509F0A4C010920E06ACC08D3591056E
:1015100009F469C08E35910509F099C010920C0646
:10152000A1C0552453949EC0A0920B069BC08092EC
:101530000B0698C01092230680922406A0922506DE
:1015400091C0A092230680922406109225068AC09C
:1015500010920D0687C020E030E040E251E4C70160
:10156000B6010E94AE340E947C350E944832693137
:10157000B1E07B0709F471C03CF46831714009F0B7
:1015800066C0B3E05B2E6EC06C3221E0720739F0AA
:101590006D32714009F05BC0F6E05F2E63C0A5E0DC
:1015A0005A2E60C041E048AB5DC0B0920B065AC0F5
:1015B000A0920E0657C020E030E040E251E4C7019F
:1015C000B6010E94AE340E947C350E9448326839D0
:1015D00083E0780729F06939734009F441C037C0C6
:1015E000E7E05E2E3FC0A0920C063CC0663071055D
:1015F00034F46330710544F477FD08C003C06E31E4
:10160000710521F415E003C018E001C010E083303B
:10161000910599F04CF48130910521F15CF4892B0E
:10162000B1F4A0920F061EC08530910569F044F018
:101630004E9769F480920F0615C0A092100612C052
:101640008FEF809310060EC0109210060BC0909280
:101650000A0608C072E0572E05C064E0562E02C08C
:1016600058E0552E112309F489CE81E090E002C0A4
:10167000880F991F1A95E2F79C0122213321232B11
:1016800019F000930A067ACE282A392A77CE80915B
:101690000A068111B2C51AA61FA61BA61CA61DA666
:1016A0001EA6C12CD12C76011AAA1BAAA0E8ACABAD
:1016B000BFEBBDAB412C9E01265D3F4FA301BE0198
:1016C0006B5D7F4FCE0189966FDD892B09F43CC19C
:1016D00009A5802F90E0FC01E654F109E531F10500
:1016E00008F02EC1EA5AFF4F0C94BD359DA0AEA064
:1016F0000FA118A520E030E0A901692D7A2DC801BD
:101700000E94D93118161CF0E6E0E0930A06909189
:101710000C0680910D06992399F0882361F023E34C
:1017200033E34BEC51E4692D7A2DC8010E94AE34AD
:10173000962EA72E8C019AAAABAA0CAB1DABBBCFE1
:10174000882361F023E333E34BEC51E4692D7A2DD8
:10175000C8010E94AE34962EA72E01C0C801492DA3
:101760005A2DBC0140931206509313066093140641
:1017700070931506A0CF10E009541109BDA1AEA1C8
:10178000FFA1E8A580910D06882359F023E333E3F8
:101790004BEC51E46B2F7A2F8F2F9E2F0E94AE348B
:1017A00004C06B2F7A2F8F2F9E2FF801EE0FFF1F93
:1017B000EE0FFF1F21E030E02C0F3D1FE20FF31F63
:1017C0008B019C01048715872687378774CF6DA10D
:1017D0007EA18FA198A50E947C350E944D326FA7F3
:1017E0006ACFCDA0DEA0EFA0F8A465CF8DA19EA109
:1017F000AFA1B8A58BA79CA7ADA7BEA780910D06EA
:10180000882309F458CF23E333E34BEC51E46BA571
:101810007CA58DA59EA50E94AE346BA77CA78DA745
:101820009EA749CF20E030E0A9016DA17EA18FA144
:1018300098A50E94D93187FF3ECF96E090930A0683
:101840003ACF8DA09EA0AFA0B8A420E030E0A901BF
:10185000C501B4010E94D93187FF03C0A6E0A0935F
:101860000A06C501B4010E947C350E944D32609386
:10187000220621CFBDA1AEA1FFA1E8A580910D0652
:10188000882369F023E333E34BEC51E46B2F7A2F89
:101890008F2F9E2F0E94AE34B62FA72F02C08F2FFE
:1018A0009E2F4B2F5A2FBC01498F5A8F6B8F7C8FE5
:1018B000B42DB1604B2EFFCEBDA1AEA1FFA1E8A516
:1018C00080910D06882369F023E333E34BEC51E468
:1018D0006B2F7A2F8F2F9E2F0E94AE34B62FA72FFB
:1018E00002C08F2F9E2F4B2F5A2FBC014D8F5E8F22
:1018F0006F8F78A3E42DE2604E2EDDCEBDA1AEA1A8
:10190000FFA1E8A580910D06882369F023E333E366
:101910004BEC51E46B2F7A2F8F2F9E2F0E94AE3409
:10192000B62FA72F02C08F2F9E2F4B2F5A2FBC01EF
:1019300049A35AA36BA37CA3F42DF4604F2EBBCE16
:1019400023E020930A06B7CE80910A06811155C480
:1019500031FE13C0BE016F5F7F4F809126060E944B
:10196000AA1E882309F4ABC18CE0FE013196A7E2E0
:10197000B6E001900D928A95E1F7852D90E0FC018B
:101980003197E830F10508F09CC1E559FF4F0C9400
:10199000BD3520E030E0A901C701B6010E94D93170
:1019A00087FF04C086E080930A068BC18091FB0507
:1019B000873009F486C1C701B60134DB82C1C70193
:1019C000B6010E947C353FA5323011F0343131F43C
:1019D0000E9448329B016730710510F083E006C019
:1019E000411008C04FA5423029F486E080930A06D2
:1019F000412C67C1232B29F05B01A1E0AA1AB10891
:101A000003C0A0902606B12C7A2CBE016F5F7F4FD9
:101A10008A2D0E94AA1E882309F451C136E1832E23
:101A200036E0932E6E01B9E1CB0ED11CFE0131964A
:101A30007F0100E010E0512CC201002E02C09595FC
:101A400087950A94E2F780FF20C0FFA5F43199F44E
:101A5000D6012D913D914D915C91F4016081718190
:101A6000828193810E94FF30D7016D937D938D9386
:101A70009C9313970AC0F60180819181A281B38162
:101A8000F70180839183A283B3830F5F1F4FF4E03C
:101A90008F0E911C24E0C20ED11C34E0E30EF11C29
:101AA0000330110549F6BE016F5F7F4F872D0E94FD
:101AB000E71D8091260690E08A159B0509F098CFD6
:101AC0008CE0FE013196A7E2B6E001900D928A9576
:101AD000E1F78ECF442009F476C090900E067E0187
:101AE00049E1E40EF11C06E116E0C12CD12CA42C36
:101AF000B12CC5010C2C02C0959587950A94E2F78C
:101B000080FF33C09920F9F0D8015D962D913D9169
:101B10004D915C91909751966D917D918D919C9195
:101B200054970E9400319B01AC01F70160817181E3
:101B3000828193810E940031D7016D937D938D93B3
:101B40009C9313971CC0F8012081318142815381FD
:101B5000D7016D917D918D919C910E940031F7018B
:101B600060837183828393830AC0F80180819181AD
:101B7000A281B381F70180839183A283B383FFEFB6
:101B8000CF1ADF0A24E0E20EF11C0C5F1F4F33E096
:101B9000C316D10409F0ADCFA0905106B090520603
:101BA000C0905306D0905406E9A0FAA00BA11CA146
:101BB0002D8D3E8D4F8D58A1698D7A8D8B8D9C8D8D
:101BC000812C0E94B80445E0BE016F5F7F4F541224
:101BD00023C087E00E94AA1E882309F470C0A09049
:101BE0005106B0905206C0905306D0905406E98436
:101BF000FA840B851C852D813E814F815885698132
:101C00007A818B819C81812C0E94B8048CE0FE013A
:101C10003196A6E1B6E059CF86E0DCCF86E066E1FA
:101C200076E0581202C087E001C086E00E94E71DFE
:101C300048C0442009F4D9CE06E116E06E0199E1CE
:101C4000C90ED11CE12CF12CA42CB12CC5010E2CF9
:101C500002C0959587950A94E2F780FF1BC0D801D2
:101C600051962D913D914D915C9154976D917D913F
:101C70008D919C910E94FF30F6012081318142813B
:101C800053810E94FF30D8015D966D937D938D93B3
:101C90009C939097BFEFEB1AFB0A0C5F1F4FE4E099
:101CA000CE0ED11CF3E0EF16F10481F6A1CE8CE04C
:101CB000E3E3F6E0DF011D928A95E9F702C08AE0CE
:101CC0009CC222FC03C0442009F482C230900C065E
:101CD000332091F020E030E0A9016AA97BA98CA90A
:101CE0009DA90E94D93187FF07C080910B068430DF
:101CF00019F086E080930A06B8A9BB2339F08091D9
:101D00000B06823018F086E080930A0680910A065E
:101D1000811173C290900E068E01075E1F4F26E15F
:101D2000E22E26E0F22EC12CD12CA42CB12CC50120
:101D30000C2C02C0959587950A94E2F780FF36C077
:101D4000E8A9E1113DC09920F9F0D7015D962D91E8
:101D50003D914D915C91909751966D917D918D91B2
:101D60009C9154970E9400319B01AC01F801608165
:101D70007181828193810E940031D8016D937D939E
:101D80008D939C9313971CC0F70120813181428170
:101D90005381D8016D917D918D919C910E9400316C
:101DA000F80160837183828393830AC0F701808185
:101DB0009181A281B381F80180839183A283B3834F
:101DC000FFEFCF1ADF0A0C5F1F4F24E0E20EF11C79
:101DD00033E0C316D10409F0AACF40910B064FA7F8
:101DE000443040F4423008F04DC0442371F041309B
:101DF00021F1E1C18FA5843009F0DDC1442009F44F
:101E0000DAC186E080930A06D6C14420D1F3A090BF
:101E10005106B0905206C0905306D0905406E9A0E7
:101E2000FAA00BA11CA12D8D3E8D4F8D58A1698D5F
:101E30007A8D8B8D9C8D812C22C0442011F3311022
:101E400009C0B0911206A0911306F0911406E0911A
:101E5000150604C0BAA9ABA9FCA9EDA9E9A0FAA08E
:101E60000BA11CA12D8D3E8D4F8D58A1698D7A8DB2
:101E70008B8D9C8D832CAB2EBA2ECF2EDE2E0E9406
:101E8000B80499C12090250681E090E0022C01C0A1
:101E9000880F0A94EAF78095842109F4B2CF20E0F4
:101EA00030E0A9016BA57CA58DA59EA50E94D93126
:101EB0001091230600912406811129C020E030E012
:101EC000A901E1E0F0E0EC0FFD1F94E0199FE00DA7
:101ED000F11D112464857585868597850E94D93109
:101EE000811115C020E030E0A901E1E0F0E0EC0F45
:101EF000FD1FA4E00A9FE00DF11D11246485758586
:101F0000868597850E94D931882309F47ACF20E00D
:101F100030E0A9016BA57CA58DA59EA50E94D931B5
:101F2000882309F4F2C0E12FF0E08F01000F111FA8
:101F3000000F111FA1E0B0E0AC0FBD1FA00FB11F3B
:101F4000F801EA5EF94F2081318142815381589630
:101F50006D917D918D919C915B970E94FF302B013B
:101F60003C01A0912406B0E0FD01EE0FFF1FEE0F33
:101F7000FF1FF9ABE8ABE1E0F0E0EC0FFD1F28A993
:101F800039A9E20FF31FD901AA5EB94F2D913D91F6
:101F90004D915C91608D718D828D938D0E94FF308B
:101FA0004B015C01FE013D968CE0DF011D928A959C
:101FB000E9F720E030E040E850E46BA57CA58DA572
:101FC0009EA50E94AE342BA53CA54DA55EA50E9402
:101FD000AE346B017C01A3019201C301B2010E94E6
:101FE000AE349B01AC01C701B6010E94FF306B010A
:101FF0007C01A5019401C501B4010E94AE349B018E
:10200000AC01C701B6010E94FF306B017C0120E0EA
:1020100030E0A9010E94D93187FF04C084E0809399
:102020000A06EBC0C701B6010E943B356B017C017B
:10203000A5019401C301B2010E94E9339B01AC01E7
:10204000C701B60190580E94E0316B017C01BFA529
:10205000B33021F4F7FAF094F7F8F09420E030E090
:10206000A9016BA57CA58DA59EA50E94D93187FFEE
:102070000DC0F7FAF094F7F8F0948BA59CA5ADA5E8
:10208000BEA5B0588BA79CA7ADA7BEA7A1E0B0E0A6
:10209000AC0FBD1F0A0F1B1FA7019601C501B4019C
:1020A0000E94AE349B01AC01C301B2010E94FF301B
:1020B00020E030E040E05FE30E94AE34F801648746
:1020C00075878687978701E010E00C0F1D1F28A9F0
:1020D00039A9020F131FA7019601C301B2010E9483
:1020E000AE349B01AC01C501B4010E94003120E077
:1020F00030E040E05FE30E94AE34D8011C966D935F
:102100007D938D939C931F9720C0E1E0F0E0EC0F4E
:10211000FD1FB4E00B9FE00DF11D112424853585D2
:1021200046855785E1E0F0E0EC0FFD1F84E0189F45
:10213000E00DF11D112464857585868597850E94C3
:10214000E9336BA77CA78DA79EA741E09FA592309E
:1021500009F040E0311009C03091120620911306B9
:10216000909114068091150604C03AA92BA99CA948
:102170008DA94F93AEA5AF93BDA5BF93ECA5EF93EB
:10218000FBA5FF93832CA32EB22EC92ED82EE22CB2
:102190000091240620912306AE01435F5F4FBE01EC
:1021A000675E7F4F86E196E00E942B050F900F90AF
:1021B0000F900F900F9080910A0681111EC08CE045
:1021C000FE017996A6E1B6E001900D928A95E1F7BD
:1021D00080910F06882369F00E948D2310920906D2
:1021E00080910F06823019F40E94BE0802C010923E
:1021F0000F0680910A0601C08CE0E5960FB6F894B0
:10220000DEBF0FBECDBFDF91CF911F910F91FF9029
:10221000EF90DF90CF90BF90AF909F908F907F9086
:102220006F905F904F903F902F90089584B7877F75
:1022300084BF88E10FB6F89480936000109260002C
:102240000FBE90E080E80FB6F89480936100909301
:1022500061000FBE0E94EE2B62E271E080E091E02F
:102260000E943A30789408950F931F93CF93DF9391
:1022700080912101909120018823A1F0911112C039
:102280006BE171E080ED91E00E945B298DEC91E0C3
:102290000E945B298CEA91E00E945B2981E0809397
:1022A000200106C0992321F0811102C01092200163
:1022B00080E091E00E94CF2F8C01C0E0D0E080E070
:1022C00091E0C017D10729F00E94FC2FADD12196D3
:1022D000F6CF0E94B92FDF91CF911F910F910C94EF
:1022E000132F62E271E090E00C94DC3580E091E025
:1022F0000C948B2F80E091E00C942F2F80E091E0E4
:102300000C944E30FC0180898170809321010895E6
:102310001092310110923001EDC7CF93C0E062E31B
:1023200071E08C2F0E948F1E811102C08AE00CC0C8
:1023300080913201882349F082E391E00E944F2985
:1023400082E391E00E94800952D7CF5FC23039F713
:10235000CF910895CF938091FC05882309F44DC057
:10236000C091FC058C2F8076D1F086E08093FB0530
:10237000C6FF0EC08FEF7ED781E096D78091FC0517
:102380008F7E8093FC058091FC0584FFFCCF02C00A
:102390008EEF70D78091FC058F798093FC05C4FF88
:1023A00004C081E08093FA0528C0C0FF07C00E94E6
:1023B000501C8091FC058E7F8093FC05C3FF06C0F6
:1023C000C7D68091FC05877F8093FC05C2FF06C0BD
:1023D000C9D68091FC058B7F8093FC05C1FF0DC0A1
:1023E000AED68091620681FF03C081E0809309062A
:1023F0008091FC058D7F8093FC05CF910895CF924D
:10240000DF92EF92FF921F93CF93DF93CDB7DEB7AA
:1024100029970FB6F894DEBF0FBECDBF7C01FC013B
:102420008081843209F0EFC081E089878181833423
:1024300099F140F48332F1F0843289F081117DC04A
:102440006CD716C0883409F44EC018F48734D9F01C
:1024500074C08E3409F459C08835B1F16EC082E081
:102460008987F7018281882311F083E0CFC059D793
:1024700080E0CCC082E08987F70182818111F5CFAD
:102480000E94D61AF5CF82E08987F70182818111F7
:10249000ECCF0E94811BECCF82E08987F70182811B
:1024A0008111E3CF8091FB05873021F40E94BE08A3
:1024B00085E008C0882311F08BE0A8C087E08093F6
:1024C000FB0584E0F1D6D4CF82E08987F7018281D1
:1024D0008111CBCF8091FB05863051F683E0E4D6A5
:1024E0001092FB05C5CF8091620684FF8AC080915F
:1024F000FB05882311F08630F9F60E946A08809166
:10250000FA058111B5CF09DFB3CF82E08987F701E2
:102510008281811114C010E0B701812F0E948F1EAB
:10252000811103C08AE063D604C0B701812F0E94E5
:10253000331C1F5F123081F79BCF10E001C011E008
:10254000AE014B5F5F4FBE01675F7F4FC7010E94C7
:102550000B28892B11F481E059C0898521E0280FCF
:102560002987F701E80FF11D80818D3309F07DCFB8
:10257000112321F1822F90E0E22FF0E0D701AE0F7E
:10258000BF1F3C91E81BF90BEE0DFF1D30832F5F41
:102590003C913111F1CF2987C7010E948009811137
:1025A00035C06D817E818F8198850E947C350E9427
:1025B0004D32862FB7010E94DF1D5ACFAE014F5F0B
:1025C0005F4FBE01675F7F4FC7010E940B28892BB9
:1025D00011F28985F701E80FF11D8081811145CF46
:1025E000C980DA80EB80FC806D817E818F81988547
:1025F0000E944832DC01CB01B701A6010E94EB1E0C
:1026000005C087E003C0C7010E94800929960FB664
:10261000F894DEBF0FBECDBFDF91CF911F91FF9029
:10262000EF90DF90CF900895813289F020F48831C7
:10263000A1F40C94BE088F3331F08E3771F4809181
:10264000FC05826007C08091FC05816003C0809119
:10265000FC0588608093FC0508958A3011F08D3068
:1026600099F478DE8091FA05811138C0E09131014A
:10267000EE2341F0F0E0EE5CFE4F108282E391E049
:10268000BEDE18C080E016C090913001992319F089
:10269000893221F512C0813208F18F32F9F0883287
:1026A00021F481E080933001089520913101293592
:1026B00038F08DE09CD510923101109230010895D0
:1026C00091E0920F30E04FE9480F90933101F9010A
:1026D000EE5CFE4F4A3108F48052808308954091A9
:1026E000A5015091A6016091A7017091A801809168
:1026F000A9019091AA01A091AB01B091AC01840F06
:10270000951FA61FB71F813022EE920724E0A20773
:10271000B10550F48093A9019093AA01A093AB0155
:10272000B093AC0180E00895925EA440B10980931B
:10273000A9019093AA01A093AB01B093AC0181E0F1
:1027400008959B01AC01203283E038074105510513
:1027500020F420E233E040E050E060E070E788E3FE
:1027600099E30E949B352115310581E04807510509
:1027700018F4B90191E02FC02115310588E0480710
:102780005105A8F4DA01C901F3E0B695A79597952C
:102790008795FA95D1F7BC019C01AD01A3E0220F0A
:1027A000331F441F551FAA95D1F792E014C0DA01D8
:1027B000C90126E0B695A795979587952A95D1F7F3
:1027C000BC019C01AD01E6E0220F331F441F551FE1
:1027D000EA95D1F793E080918100887F892B8093DF
:1027E000810070938900609388002093A501309345
:1027F000A6014093A7015093A80108958091620615
:1028000082FF02C0299A01C029988091FB0583307C
:1028100081F48091550680938D0180914C06880F3C
:102820008450819580938E0180916F0082608093A7
:102830006F00089580916F008D7F80936F0080916D
:1028400072068F3F21F49091FC0595FF0AC090E03D
:102850000E94BB288091620682FF02C029980895D9
:10286000299A08951F920F920FB60F9211240F9379
:102870001F932F933F934F935F936F937F938F9308
:102880009F93AF93BF93CF93DF93EF93FF93809189
:102890008C018111F4C38BB190918D019E70817F69
:1028A000892B8BB99BB180918D01892B8BB980913C
:1028B0008E0186BD82E085BD81E080938C01789495
:1028C00080918F0190919001892B09F07DC00E9429
:1028D0007323EC019093900180938F01892B09F46D
:1028E0006DC08091FB058330C9F46BA17CA18DA1E3
:1028F0009EA16093AD017093AE018093AF01909360
:10290000B0011FDF80E091E7A2E0B0E08093A90171
:102910009093AA01A093AB01B093AC014BA55CA529
:102920006DA57EA5DB01CA01B595A79597958795FD
:10293000840F951FA61FB71F8093B1019093B2011A
:10294000A093B301B093B4014D855E856F857889FE
:10295000DB01CA01B595A79597958795B095A09588
:10296000909581959F4FAF4FBF4F8093910190936A
:102970009201A0939301B093940180939501909359
:102980009601A0939701B093980180939901909339
:102990009A01A0939B01B0939C0140939D01509399
:1029A0009E0160939F017093A0011092A10110926B
:1029B000A2011092A3011092A40106C03BDF8091F6
:1029C000FC0584608093FC05E0918F01F0919001FB
:1029D000309709F44BC3208120938D0140919101E0
:1029E0005091920160919301709194018181928143
:1029F000A381B481840F951FA61FB71F80939101F7
:102A000090939201A0939301B09394011816190624
:102A10001A061B060CF091C040919D0150919E0139
:102A200060919F017091A001841B950BA60BB70BC1
:102A30008093910190939201A0939301B09394019C
:102A40008091FD059091FE05A091FF05B0910006D3
:102A500021FF04C00197A109B10903C00196A11D7E
:102A6000B11D8093FD059093FE05A093FF05B093E3
:102A700000068091FD059091FE055C982A98299AA0
:102A800029982A9A299A2998299A2998299A299835
:102A900093FF02C02A9A01C02A98299A299892FF86
:102AA00002C02A9A01C02A98299A299891FF02C047
:102AB0002A9A01C02A98299A299890FF02C02A9A36
:102AC00001C02A98299A299887FF02C02A9A01C032
:102AD0002A98299A299886FF02C02A9A01C02A9822
:102AE000299A299885FF02C02A9A01C02A98299A12
:102AF000299884FF02C02A9A01C02A98299A299805
:102B000083FF02C02A9A01C02A98299A299882FF35
:102B100002C02A9A01C02A98299A299881FF02C0E6
:102B20002A9A01C02A98299A299880FF02C02A9AD5
:102B300001C02A98299A29985C9AE0918F01F09116
:102B4000900140919501509196016091970170918B
:102B5000980185819681A781B085840F951FA61F56
:102B6000B71F8093950190939601A0939701B0931E
:102B70009801181619061A061B060CF093C020912E
:102B80008D0140919D0150919E0160919F01709136
:102B9000A001841B950BA60BB70B80939501909316
:102BA0009601A0939701B0939801809101069091AE
:102BB0000206A0910306B091040622FF04C001970B
:102BC000A109B10903C00196A11DB11D80930106A1
:102BD00090930206A0930306B09304068091010629
:102BE000909102065C982A9A299A29982A9A299AF9
:102BF0002998299A2998299A299893FF02C02A9AF4
:102C000001C02A98299A299892FF02C02A9A01C0E5
:102C10002A98299A299891FF02C02A9A01C02A98D5
:102C2000299A299890FF02C02A9A01C02A98299AC5
:102C3000299887FF02C02A9A01C02A98299A2998C0
:102C400086FF02C02A9A01C02A98299A299885FFEE
:102C500002C02A9A01C02A98299A299884FF02C0A2
:102C60002A9A01C02A98299A299883FF02C02A9A91
:102C700001C02A98299A299882FF02C02A9A01C085
:102C80002A98299A299881FF02C02A9A01C02A9875
:102C9000299A299880FF02C02A9A01C02A98299A65
:102CA00029985C9AE0918F01F091900140919901EF
:102CB00050919A0160919B0170919C018185928550
:102CC000A385B485840F951FA61FB71F8093990114
:102CD00090939A01A0939B01B0939C01181619063A
:102CE0001A061B060CF093C020918D0140919D01A6
:102CF00050919E0160919F017091A001841B950BE2
:102D0000A60BB70B8093990190939A01A0939B0116
:102D1000B0939C018091050690910606A09107064C
:102D2000B091080623FF04C00197A109B10903C0AF
:102D30000196A11DB11D8093050690930606A093F0
:102D40000706B093080680910506909106064698FE
:102D50002A98299A29982A9A299A2998299A299861
:102D6000299A299893FF02C02A9A01C02A98299A81
:102D7000299892FF02C02A9A01C02A98299A299874
:102D800091FF02C02A9A01C02A98299A299890FF97
:102D900002C02A9A01C02A98299A299887FF02C05E
:102DA0002A9A01C02A98299A299886FF02C02A9A4D
:102DB00001C02A98299A299885FF02C02A9A01C041
:102DC0002A98299A299884FF02C02A9A01C02A9831
:102DD000299A299883FF02C02A9A01C02A98299A21
:102DE000299882FF02C02A9A01C02A98299A299814
:102DF00081FF02C02A9A01C02A98299A299880FF47
:102E000002C02A9A01C02A98299A2998469A809144
:102E1000A1019091A201A091A301B091A4010196FA
:102E2000A11DB11D8093A1019093A201A093A301C4
:102E3000B093A401C0918F01D09190014D855E8522
:102E40006F85788984179507A607B70708F008C12A
:102E50002091FB05243019F542DC882309F406C1D2
:102E60008091AD019091AE01A091AF01B091B00100
:102E70000BA51CA52DA53EA5081719072A073B077A
:102E800038F0D8DC8091FC0584608093FC05EEC0AE
:102E9000BC01CD01601B710B820B930BD8C04FA5F9
:102EA00058A969A97AA984179507A607B707B8F59D
:102EB00016DC882309F4DAC04BA55CA56DA57EA5B8
:102EC0008091AD019091AE01A091AF01B091B001A0
:102ED000840F951FA61FB71F8093AD019093AE017D
:102EE000A093AF01B093B0014FA958AD69AD7AADD1
:102EF00084179507A607B70740F04093AD0150939C
:102F0000AE016093AF017093B0016091AD0170911B
:102F1000AE018091AF019091B00113DCA7C04BA925
:102F20005CA96DA97EA984179507A607B70708F4C1
:102F30007DC084179507A607B70779F54091AD01C5
:102F40005091AE016091AF017091B0018FA998AD21
:102F5000A9ADBAAD481759076A077B0729F480E085
:102F600091E7A2E0B0E010C04091A9015091AA0100
:102F70006091AB017091AC0180E092EEA4E0B0E012
:102F8000841B950BA60BB70B8093A9019093AA0104
:102F9000A093AB01B093AC0169C0A1DB882309F415
:102FA00065C08091AD019091AE01A091AF01B0914B
:102FB000B0014091B1015091B2016091B3017091A3
:102FC000B401481759076A077B0748F44BA55CA56D
:102FD0006DA57EA5841B950BA60BB70B04C0B695FB
:102FE000A795979587958093AD019093AE01A09397
:102FF000AF01B093B0018FA198A5A9A5BAA5409142
:10300000AD015091AE016091AF017091B0014817D0
:1030100059076A077B0708F078CF8093AD0190933A
:10302000AE01A093AF01B093B0016FCF6FA978AD9F
:1030300089AD9AAD0091AD011091AE012091AF0123
:103040003091B001061717072807390779F0609308
:10305000AD017093AE018093AF019093B0015DCF4D
:103060001092900110928F010E94642390918D0123
:1030700080915506892780938D0110928C01FF91D4
:10308000EF91DF91CF91BF91AF919F918F917F9100
:103090006F915F914F913F912F911F910F910F90E1
:1030A0000FBE0F901F9018951F920F920FB60F92A0
:1030B00011248F938BB18BB915BC8F910F900FBEDC
:1030C0000F901F90189584E2E1E9F1E0DF011D9275
:1030D0008A95E9F760E273E080E090E032DB1092DD
:1030E000900110928F0110928C0108958AB18E6028
:1030F0008AB98BB1817F90915506892B8BB9219A22
:10310000E1E8F0E080818F7E808380818860808329
:10311000E0E8F0E080818D7F808380818E7F8083F6
:1031200080818F73808380818F7C808314BC15BCE9
:10313000EEE6F0E080818160808360DB7BCB809174
:10314000FB05823021F483E08093FB0557CB089583
:103150008091FB05833029F484E08093FB05109275
:10316000090608950F931F93E0918F01F09190014C
:103170003097C1F185859685A785B0890091A10119
:103180001091A2012091A3013091A401BC01CD01B5
:10319000601B710B820B930B0E94BF271092AD0135
:1031A0001092AE011092AF011092B00160E070E099
:1031B000CB01C7DA80E091E7A2E0B0E08093A901FB
:1031C0009093AA01A093AB01B093AC011092A1011E
:1031D0001092A2011092A3011092A40182E08093A8
:1031E000FB0502C01092FB051F910F910895CF932C
:1031F000C82F811103C087E298E039C08FE198E0C1
:103200000E945B298C2F90E0FC013197ED30F10595
:1032100060F5ED58FF4F0C94BD358DE098E023C06C
:1032200085EF97E020C08FED97E01DC080ED97E01F
:103230001AC08AEB97E017C088EA97E014C087E9C4
:1032400097E011C08BE897E00EC08CE797E00BC0C9
:103250008BE597E008C08CE497E005C081E497E037
:1032600002C083E397E00E945B2980E397E0CF915F
:103270000C945B29CF93C82F88E297E00E945B29CA
:10328000CE3F29F0CF3F39F48DE197E002C08AE0CC
:1032900097E00E945B2980E097E00E945B2984EF21
:1032A00091E0CF910C94BB28CF93C82F8EEF96E07E
:1032B0000E945B29C33091F038F4C13061F0C23014
:1032C000A1F488ED96E00FC0C43059F0C53069F420
:1032D00085EB96E008C08CEE96E005C086EC96E0A3
:1032E00002C08EEB96E00E945B2981EB96E0CF91C5
:1032F0000C945B2984E996E00E945B2986E796E0BE
:103300000E945B29549A3E9A579A219A229A5C9A73
:10331000469A5F9A509A5898089588E495E00C94DC
:103320005B29CF93DF9384E495E00E945B29609151
:103330003F067091400680914106909142060E949E
:10334000122A81E395E00E945B2960914306709107
:10335000440680914506909146060E94122A8EE10D
:1033600095E00E945B296091470670914806809124
:10337000490690914A060E94122A8BE095E00E942D
:103380005B2960914C0670E080E090E00E949C29EF
:1033900082EF94E00E945B2960914D0670914E0689
:1033A00080914F06909150060E94122A85ED94E07C
:1033B0000E945B29609151067091520680915306DC
:1033C000909154060E94122A88EB94E00E945B2997
:1033D000C5E5D6E0688170E080E090E00E949C291D
:1033E0008AE994E00E945B2988810E946A2983E926
:1033F00094E00E945B296091720670E080E090E0AA
:103400000E949C2985E794E00E945B2920E030E03F
:1034100041E655E460915A0670915B0680915C0626
:1034200090915D060E94E0310E94122A86E594E0A8
:103430000E945B2960915E0670915F068091600634
:10344000909161060E94122A86E394E00E945B2913
:1034500060915606709157068091580690915906D2
:103460000E94122A8DE194E00E945B29609174060B
:1034700070E080E090E00E949C298EEF93E00E9433
:103480005B296091730670E080E090E00E949C29C7
:1034900085EE93E00E945B29C2E6D6E06881617008
:1034A00070E080E090E00E949C2988EC93E00E940C
:1034B0005B2968816695617070E080E090E00E9411
:1034C0009C298EEA93E00E945B29688162FB662753
:1034D00060F970E080E090E00E949C298CE893E025
:1034E0000E945B29688163FB662760F970E080E0D9
:1034F00090E00E949C2981E793E00E945B2968810B
:103500006295617070E080E090E00E949C2985E502
:1035100093E00E945B29C3E6D6E0688170E080E01A
:1035200090E00E949C2986E393E00E945B298881B9
:103530000E946A298EE293E00E945B2960916406F2
:103540007091650680916606909167060E94122A26
:1035500081E193E00E945B296091680670916906A1
:1035600080916A0690916B060E94122A84EF92E085
:103570000E945B2960916C0670916D0680E090E07E
:103580000E949C2985ED92E00E945B2960916E0665
:1035900070916F0680917006909171060E94122AB8
:1035A0008CEB92E0DF91CF910C945B29EF92FF922C
:1035B0000F931F93CF93DF93CDB7DEB72C970FB642
:1035C000F894DEBF0FBECDBFF12CBE016F5F7F4F01
:1035D0008F2DC0D3811103C08AE009DE85C089EB3D
:1035E00092E00E945B294F2D50E0FA013197E730BD
:1035F000F10520F4E058FF4F0C94BD3585EB92E0C7
:1036000014C081EB92E011C08DEA92E00EC089EA0D
:1036100092E00BC085EA92E008C081EA92E005C022
:103620008DE992E002C089E992E00E945B298E0157
:103630000F5F1F4FE12C8091620680FF0CC02BE8CA
:1036400032E441E25DE3F80160817181828193811E
:103650000E94AE3405C0F80160817181828193813E
:103660000E94122AF2E0EF1619F087E992E002C0F8
:1036700083E992E00E945B29E3940C5F1F4F83E093
:10368000E812D9CFF394E8E0FE129FCF8DE892E0E4
:103690000E945B2903E316E0F12C8091620680FF13
:1036A0000CC02BE832E441E25DE3F80160817181F6
:1036B000828193810E94AE3405C0F80160817181DE
:1036C000828193810E94122AF2E0FF1619F08BE8A2
:1036D00092E002C087E892E00E945B29F3940C5FBD
:1036E0001F4F83E0F812D9CF2C960FB6F894DEBFA7
:1036F0000FBECDBFDF91CF911F910F91FF90EF9043
:10370000089580910B06823091F038F4882361F09F
:103710008130A1F48FE792E00FC0833059F08430FC
:1037200069F482E792E008C083E892E005C08BE785
:1037300092E002C087E792E00E945B298FE692E068
:103740000E945B296091260670E06A5C7F4F8827A3
:1037500077FD8095982F0E949C29809123068111E6
:103760000AC080912406813019F48AE692E005C0EF
:1037700085E692E002C080E692E00E945B2980919B
:103780000D06882319F08BE592E002C086E592E0F1
:103790000E945B2980910E06882319F081E592E052
:1037A00002C08CE492E00E945B2980910C06882381
:1037B00019F087E492E002C082E492E00E945B2963
:1037C00080910F06813049F028F0823051F486E371
:1037D00092E005C08EE392E002C08AE392E00E948C
:1037E0005B2980911006882351F0813029F08F3FAA
:1037F00051F48EE292E005C082E392E002C08AE2D8
:1038000092E00E945B2987E292E00E945B2960912E
:10381000220670E080E090E00E949C2984E292E021
:103820000E945B2980910D06882379F02BE832E411
:1038300041E25DE3609112067091130680911406D7
:10384000909115060E94AE3408C0609112067091E6
:10385000130680911406909115060E94122A80E2A8
:1038600092E00C945B291F93CF93DF93182FEB0109
:103870008DE192E00E945B29612F70E080E090E092
:103880000E949C298BE192E00E945B29CE010E945C
:103890004F2988E192E0DF91CF911F910C945B2931
:1038A0008F929F92AF92BF92CF92DF92EF92FF9250
:1038B0000F931F93CF93DF93CDB7DEB76C970FB6FF
:1038C000F894DEBF0FBECDBF8CE0EDEFF5E0DE017A
:1038D0001D9601900D928A95E1F78091FB0590E08D
:1038E00088309105D8F4FC01E957FF4F0C94BD35A1
:1038F00082E192E011C08BE092E00EC086E092E09F
:103900000BC080E092E008C08AEF91E005C083EF31
:1039100091E002C08CEE91E00E945B2985EE91E07F
:103920000E945B297E018DE0E80EF11C8FE3C82E1A
:1039300086E0D82E5E0199E1A90EB11C8E010F5FC1
:103940001F4FF70161917191819191917F01F60172
:1039500021913191419151916F01298F3A8F4B8F74
:103960005C8F0E947B32298D3A8D4B8D5C8D0E943D
:10397000E0314801F8016083718382839383209151
:10398000620620FF0BC02BE832E441E25DE30E94B7
:10399000AE34F80160837183828393830C5F1F4F81
:1039A000F40160817181828193810E94122A83EEE9
:1039B00091E00E945B29EA14FB0419F68DED91E079
:1039C0000E945B2907E216E0CE0101967C01D12C12
:1039D00080916206F801248535854685578580FFEC
:1039E0000DC060817181828193810E9400312BE83A
:1039F00032E441E25DE30E94AE3406C06081718131
:103A0000828193810E9400319B01AC01F7016081AA
:103A10007181828193810E94FF30F70160837183FD
:103A200082839383F70161917191819191917F01DB
:103A30000E94122AF2E0DF1621F08BED91E00E9445
:103A40005B29D3940C5F1F4F83E0D812C1CF87ED61
:103A500091E06C960FB6F894DEBF0FBECDBFDF913C
:103A6000CF911F910F91FF90EF90DF90CF90BF907B
:103A7000AF909F908F900C945B29F999FECF92BDE7
:103A800081BD81E08FBB80B50895F894F999FECF90
:103A900092BD81BD81E08FBB80B58627982F96238C
:103AA00039F06F3F19F060BD84E006C084E104C0C6
:103AB000882321F060BD84E28FBBF99A7894089541
:103AC0009F92AF92BF92CF92DF92EF92FF920F93AD
:103AD0001F93CF93DF938C017A016B01C40ED51E27
:103AE000EB01912C5C01A61AB70ACE018A0D9B1D31
:103AF000CC15DD0589F0911009C0692D772767FD88
:103B00007095272F221F2227221F01C021E06991D3
:103B1000922E960EBADFE9CF692DC8018E0D9F1D3A
:103B2000DF91CF911F910F91FF90EF90DF90CF9099
:103B3000BF90AF909F90A9CF9F92AF92BF92CF922C
:103B4000DF92EF92FF920F931F93CF93DF938B013E
:103B50007A016C01C40ED51EEC01912C5B01A81AF0
:103B6000B90AC5018C0F9D1FCC15DD0589F085DFD5
:103B7000911009C0292D332727FD3095232F221FAF
:103B80002227221F01C021E0922E980E8993E9CFAF
:103B9000C8018E0D9F1D71DF21E030E0981611F0F5
:103BA00020E030E0C901DF91CF911F910F91FF908C
:103BB000EF90DF90CF90BF90AF909F9008952BE54E
:103BC000829FC00111244AE550E09D5F79CF2DE02E
:103BD000829FC00111244CE050E09E5F71CF65E0F0
:103BE00080E090E052DF46E350E06FE376E081E072
:103BF00090E066CF882309F45AC080E090E0AAE7FD
:103C0000B3E480933F0690934006A0934106B0939F
:103C100042068093430690934406A0934506B093D2
:103C200046068093470690934806A0934906B093B2
:103C30004A062AE020934C0680934D0690934E0648
:103C4000A0934F06B093500680E090E0AAEFB3E453
:103C50008093510690935206A0935306B093540656
:103C600080E090EAACE0B7E480935A0690935B065C
:103C7000A0935C06B0935D068DEC9CECACECBDE3D0
:103C80008093560690935706A0935806B093590612
:103C90008CE0809355068DEC9CECACE4BDE3809306
:103CA0005E0690935F06A0936006B093610682E083
:103CB000809362061092630680E090E0A8ECB1E485
:103CC0008093640690936506A0936606B09367069A
:103CD00080E090E0AAE7B3E48093680690936906D9
:103CE000A0936A06B0936B0684E690E090936D060D
:103CF00080936C0680E090E0A0E8BFE380936E06BE
:103D000090936F06A0937006B093710689E180933B
:103D1000720693E0909373068093740660CF1F93AE
:103D2000CF93DF93182FEB018BE5189FB00111247F
:103D30007D5F4AE550E0CE01FFDE892B31F4188229
:103D4000BE01812F3CDF80E001C081E0DF91CF9197
:103D50001F9108951F93CF93DF93182FEB018DE0F0
:103D6000189FB00111247E5F4CE050E0CE01E4DEEC
:103D7000892B51F48CE0FE0111928A95E9F7BE017E
:103D8000812F25DF80E001C081E0DF91CF911F917D
:103D9000089580E090E071DE853059F446E350E00C
:103DA00061E070E08FE396E0C7DE21E0892B89F4C3
:103DB00002C0853010F020E00CC043E250E061E02A
:103DC00070E08FE396E0B8DE892BA9F380E012DF84
:103DD00021E0822F0895CF92DF92EF92FF92CF934E
:103DE000DF93EC016A017B018731910508F010C176
:103DF000FC01E157FF4F0C94BD3520E030E0A901F4
:103E0000C701B6010E94D93118160CF003C1CC0FBE
:103E1000DD1FCC0FDD1FC15CD94FC882D982EA8279
:103E2000FB82F3C020E030E040E450E4C701B6017B
:103E30000E94D93187FDF0C0C701B6010E9411353B
:103E40000E944D3260934C06E0C040934D06509363
:103E50004E0660934F0670935006D7C040935106AC
:103E6000509352066093530670935406CEC0CB0114
:103E7000BA010E947C350E944D3260935506C5C040
:103E8000CB01BA010E9411350E944D326093720637
:103E9000BCC020E030E040E752E4C701B6010E9418
:103EA000AE3420E030E040E752E40E94AE3460934C
:103EB0005A0670935B0680935C0690935D06A5C0DE
:103EC000E894F7F8C0925E06D0925F06E092600632
:103ED000F09261069AC0409356065093570660933D
:103EE00058067093590691C0CB01BA010E94113552
:103EF0000E944D326093740688C0CB01BA010E94C3
:103F000011350E944D32609373067FC020E030E08F
:103F1000A901C701B6010E94D93190916206882398
:103F200011F091600EC09E7F0CC020E030E0A9012E
:103F3000C701B6010E94D93190916206882321F011
:103F400092609093620661C09D7FFBCF20E030E0DD
:103F5000A901C701B6010E94D93190916206882358
:103F600011F09460EECF9B7FECCF20E030E0A90110
:103F7000C701B6010E94D93190916206882311F0E1
:103F8000986001C0977F909362060E9404293DC00B
:103F900020E030E0A901C701B6010E94D93190911B
:103FA0006206882311F09061CCCF9F7ECACFCB01EF
:103FB000BA010E947C350E944D326093630625C091
:103FC0004093640650936506609366067093670697
:103FD0001CC0409368065093690660936A0670930C
:103FE0006B0613C0CB01BA010E9411350E944D32FD
:103FF00070936D0660936C0608C040936E065093F4
:104000006F066093700670937106E9DD80E005C06D
:1040100086E003C088E001C089E0DF91CF91FF9086
:10402000EF90DF90CF9008951F93CF93DF93CDB79C
:10403000DEB72C970FB6F894DEBF0FBECDBFA9DE5A
:10404000811105C08AE0D3D881E0D4DD6AD910E0BF
:10405000BE016F5F7F4F812F7DDE811102C08AE03C
:10406000C6D81F5F1830A1F72C960FB6F894DEBFA4
:104070000FBECDBFDF91CF911F9108952F923F9238
:104080004F925F926F927F928F929F92AF92BF9268
:10409000CF92DF92EF92FF920F931F93CF93DF9314
:1040A000D090D301E12CF12CC0E0D0E09BE3392E7D
:1040B000222423948091D201D81609F477C0D1101C
:1040C00002C082E1D82EDA943D9C800111240C526A
:1040D0001E4F209709F467C0E114F10409F463C08E
:1040E000998CAA8CBB8CCC8C292D3A2D4B2D5C2D18
:1040F0006D897E898F89988D0E94D931882309F432
:1041000052C08AA1811146C0F70145885688678848
:10411000708CA3019201692D7A2D8B2D9C2D0E940C
:10412000DC331816BCF5A3019201C301B2010E9451
:10413000AE342B013C0180915A0690915B06A09110
:104140005C06B0915D06BC01CD0190589B01AC01AD
:104150000E9400312D8D3E8D4F8D58A10E94AE34AE
:104160009B01AC01C301B2010E94FF300E943B35AC
:10417000762E872E7C01262F372FAC01692D7A2DC4
:104180008B2D9C2D0E94D93187FD04C0972CA82C23
:10419000BE2CCF2C892D9A2DAB2DBC2D8D8B9E8BBB
:1041A000AF8BB88F29A27E01E80184CFDF91CF9138
:1041B0001F910F91FF90EF90DF90CF90BF90AF9045
:1041C0009F908F907F906F905F904F903F902F9037
:1041D00008954F925F926F927F92AF92BF92CF926B
:1041E000DF92EF92FF920F931F93CF93DF938C0197
:1041F000EB01009709F456C0FC0182A1811152C065
:10420000458856886788708CAD88BE88CF88D88CE2
:104210009501A601C301B2010E94D93187FF42C0B6
:10422000A3019201C301B2010E94AE342B013C01F3
:1042300080915A0690915B06A0915C06B0915D0654
:10424000BC01CD0190589B01AC010E940031F801E6
:10425000258D368D478D50A10E94AE349B01AC0157
:10426000C301B2010E94FF300E943B357B018C01EB
:104270009B01AC01B501C6010E94D93187FF02C084
:10428000750186019701A801B501C6010E94D931C7
:10429000882341F0A701B8014D8B5E8B6F8B788F1F
:1042A00081E089A3DF91CF911F910F91FF90EF9053
:1042B000DF90CF90BF90AF907F906F905F904F90C6
:1042C0000895EF92FF920F931F93CF93DF93109176
:1042D000D201F12C00E080E090E02BE3E22E20916F
:1042E000D301121789F0E19EE0011124CC52DE4F78
:1042F0006F2D702F6EDF1F5F123109F410E08F2DCC
:10430000902FFC2E0D2FEBCF6F2D702FDF91CF91C3
:104310001F910F91FF90EF905CCF2F923F924F92A1
:104320005F926F927F928F929F92AF92BF92CF9245
:10433000DF92EF92FF920F931F93CF93DF93CDB74E
:10434000DEB760970FB6F894DEBF0FBECDBF1C017D
:104350002A013B0148015901FC0167A970AD81ADFB
:1043600092AD0E9479326B017C01A30192010E94FF
:10437000AE340E94C6310E944D322B013C01F10146
:1043800063A374A385A396A3A5019401C701B601F5
:104390000E94AE340E94C6310E944D324B015C0136
:1043A000F10167A370A781A792A723A534A545A50E
:1043B00056A5A2E3B0E00E94C3350E947B3220E004
:1043C00030E040E752E40E94AE340E9448326983F4
:1043D0007A838B839C830E947B326D837E838F8361
:1043E0009887C301B2010E9479322B013C01A701D9
:1043F0009601C701B6010E94AE346B017C01A30196
:104400009201C301B2010E94AE3469877A878B871B
:104410009C872D813E814F815885CA01B9010E9438
:1044200000316D877E878F87988B29853A854B85EC
:104430005C85C701B6010E94FF302D853E854F8502
:1044400058890E94E0310E94C6310E9448322B01F7
:104450003C01C501B4010E9479329B01AC010E946C
:10446000AE344B015C01A70196010E94FF306B0145
:104470007C0169817A818B819C8190958095709572
:1044800061957F4F8F4F9F4F0E947B329B01AC0104
:104490000E9400319B01AC01C701B6010E94E031CE
:1044A0000E94B632F101C584D684E784F088A70162
:1044B0009601241935094609570929833A834B8304
:1044C0005C830E94483229813A814B815C81261BA2
:1044D000370B480B590BDA01C90157FF3DC0C70123
:1044E000B6010E947B329B01AC016D857E858F8574
:1044F00098890E94AE3429853A854B855C850E9457
:10450000FF30A50194010E9400314B015C0120E0C5
:1045100030E040E850E46D817E818F8198850E9473
:10452000AE349B01AC01C501B4010E94E0310E9490
:10453000C6310E94483297FF03C060E070E0CB01B3
:104540002B013C01C616D706E806F90614F426012D
:10455000370180E090E0DC01F10147A650AA61AA92
:1045600072AA840D951DA61DB71D83AB94ABA5AB98
:10457000B6AB60960FB6F894DEBF0FBECDBFDF912D
:10458000CF911F910F91FF90EF90DF90CF90BF9050
:10459000AF909F908F907F906F905F904F903F90E3
:1045A0002F9008954F925F926F927F928F929F9279
:1045B000AF92BF92CF92DF92EF92FF920F931F9331
:1045C000CF93DF939090D201C0E0D0E03BE3832E05
:1045D0008091D3019816A9F1899C50011124C5013D
:1045E0008C529E4F5C01209729F189A1811104C052
:1045F000F50181A18823F1F0C988DA88EB88FC886D
:10460000A7019601F501658976898789908D0E94B9
:10461000E0312B013C01A70196016D897E898F89CC
:10462000988D0E94E031AB01BC0193018201CE0163
:1046300074DE19A29394F2E19F1201C0912CE5015E
:10464000C7CFC988DA88EB88FC88A701960160E0AB
:1046500070E0CB010E94E0314B015C01A7019601A3
:104660006D897E898F89988D0E94E031AB01BC01F4
:1046700095018401CE0151DE19A2DF91CF911F91E6
:104680000F91FF90EF90DF90CF90BF90AF909F90F1
:104690008F907F906F905F904F9008958091D3019D
:1046A0008093D2018091D3018F5F823109F480E041
:1046B0008093D1010895F2DF8CE1E5EBF1E0DF01B9
:1046C0001D928A95E9F708959091D3018091D201C6
:1046D000981741F08091D2018F5F823109F480E018
:1046E0008093D20108959091D3018091D2019817BF
:1046F00049F08091D2012BE3829FC00111248C529A
:104700009E4F089580E090E008952091D20181E0CD
:104710009091D101291380E00895E5DF892B39F0CC
:104720000E94AA118091FA058823B9F304C08091F0
:10473000FB058330A9F308952F923F924F925F9229
:104740006F927F928F929F92AF92BF92CF92DF92A1
:10475000EF92FF920F931F93CF93DF93CDB7DEB706
:10476000E6970FB6F894DEBF0FBECDBF29013A0120
:10477000EB82FC820D831E832091D3010BE3209FEB
:104780007001112487010C521E4F1A830983E09097
:104790003F06F09040060091410610914206EF86D8
:1047A000F88A098B1A8BA80197010E94AE340E94E7
:1047B0007E346BA77CA78DA79EA7E0904306F09060
:1047C00044060091450610914606EB8AFC8A0D8B43
:1047D0001E8BA8019701C301B2010E94AE340E9452
:1047E0007E346FA778AB89AB9AAB40904706509068
:1047F00048066090490670904A064F8A588E698E26
:104800007A8EA30192016B817C818D819E810E94B1
:10481000AE340E947E346BAB7CAB8DAB9EABA9817A
:10482000BA811C928091B5019091B601A091B70117
:10483000B091B8014BA45CA46DA47EA4481659069F
:104840006A067B0624F422E0E981FA812083409005
:10485000B9015090BA016090BB017090BC014B82CD
:104860005C826D827E82EFA4F8A809A91AA9E414DB
:10487000F504060517052CF4E981FA8140814460AE
:1048800040834090BD015090BE016090BF01709088
:10489000C0014F82588669867A86EBA8FCA80DA9CC
:1048A0001EA9E414F504060517052CF4E981FA8124
:1048B0004081486040834BA45CA46DA47EA4481A48
:1048C000590A6A0A7B0AC301B20177FE07C0442471
:1048D00055243201461A570A680A790AA981BA8111
:1048E00011964D925D926D927C921497EFA4F8A868
:1048F00009A91AA92B813C814D815E81E21AF30A34
:10490000040B150BEB82FC820D831E83EB8EFC8E59
:104910000D8F1E8F17FF0CC010950095F094E0943A
:10492000E11CF11C011D111DEB8EFC8E0D8F1E8FE5
:10493000EB8CFC8C0D8D1E8DA981BA811596ED92A4
:10494000FD920D931C931897EBA8FCA80DA91EA926
:104950002F81388549855A85E21AF30A040B150B15
:10496000EF82F88609871A87EB86FC860D871E87FB
:1049700017FF0CC010950095F094E094E11CF11C19
:10498000011D111DEB86FC860D871E87EB84FC84C0
:104990000D851E85A981BA811996ED92FD920D9320
:1049A0001C931C970B8D1C8D2D8D3E8D04151505AC
:1049B0002605370510F49301820128013901EB84A3
:1049C000FC840D851E854E145F046006710610F48C
:1049D00027013801A981BA811D964D925D926D9291
:1049E0007C925097411451046104710409F48DC202
:1049F0000E947B322F85388949895A890E94E0318B
:104A00006B8F7C8F8D8F9E8F6B817C818D819E8142
:104A10000E947B322B893C894D895E890E94E0315E
:104A20006F8F78A389A39AA36F81788589859A85EA
:104A30000E947B322F89388D498D5A8D0E94E0313A
:104A40006BA37CA38DA39EA32B8D3C8D4D8D5E8D82
:104A5000CA01B9010E94AE346B837C838D839E832F
:104A60002F8D38A149A15AA1CA01B9010E94AE34C3
:104A70009B01AC016B817C818D819E810E94003104
:104A80006B837C838D839E832BA13CA14DA15EA172
:104A9000CA01B9010E94AE349B01AC016B817C81DB
:104AA0008D819E810E9400310E943B356F8B788FF3
:104AB000898F9A8FE981FA81658F768F878F90A38E
:104AC0009B01AC0160E070E080E89FE30E94E03170
:104AD0006B837C838D839E83811007C09B01AC0117
:104AE000C601B5010E94AE3408C0A601950160E080
:104AF00070E080E89FE30E94E0314B015C019B0184
:104B0000AC016F89788D898D9A8D0E94AE346F8348
:104B10007B878F879B8BCB01AF85BB89E981FA812E
:104B2000818B928BA38BB48BC301B2010E947B3229
:104B30002B013C01A50194010E94AE340E94C631B4
:104B40000E944D32A981BA81D7966D937D938D9342
:104B50009C93DA97E0905A06F0905B0600915C0611
:104B600010915D06EFA2F8A609A71AA72B813C8138
:104B70004D815E81C301B2010E94AE34A80197014C
:104B80000E94AE3420E030E84BE355E40E94E0316F
:104B90000E94C6310E944832A981BA819B966D93CA
:104BA0007D938D939C939E972B813C814D815E815B
:104BB0006B8D7C8D8D8D9E8D0E94AE346B8F7C8F26
:104BC0008D8F9E8F2B813C814D815E816F8D78A171
:104BD00089A19AA10E94AE342B013C012B813C811A
:104BE0004D815E816BA17CA18DA19EA10E94AE34FE
:104BF0006B017C019091D3018091D201981709F447
:104C0000B8C00091CD011091CE012090CF0130901D
:104C1000D00120E030E0A901B801C1010E94DC33DD
:104C200018160CF0A6C08091C1019091C201A0910C
:104C3000C301B091C401BC01CD0190582B8D3C8DB6
:104C40004D8D5E8D0E94AE344B015C012091C501FB
:104C50003091C6014091C7015091C801C301B20112
:104C60000E94AE349B01AC01C501B4010E94FF302B
:104C70004B015C012091C9013091CA014091CB01E7
:104C80005091CC01C701B6010E94AE349B01AC012A
:104C9000C501B4010E94FF304B015C0123E333E303
:104CA00043E75FE30E94D93187FF63C02F813B85D3
:104CB0004F855B89B801C1010E94D93187FD04C0CD
:104CC0000F811B852F843B8823E333E343E75FEBAE
:104CD000C501B4010E94DC3318160CF04EC0A501CA
:104CE000940160E070E080E89FE30E94FF3020E0E4
:104CF00030E040E05FE30E94AE340E943B354B0160
:104D00005C0120915E0630915F06409160065091F3
:104D100061066FA178A589A59AA50E94AE34A50168
:104D200094010E94AE346B837C838D839E83A501A6
:104D3000940160E070E080E89FE30E94FF309B01F7
:104D4000AC016B817C818D819E810E94E0310E944B
:104D50003B354B01B82EA92E9B01482F592FB80186
:104D6000C1010E94D93187FD08C084012B2C3A2C47
:104D700004C000E010E0212C312CC801D101E981F0
:104D8000FA81818F928FA38FB48F6FA178A589A5A7
:104D90009AA590589B01AC010E9400312F89388D53
:104DA000498D5A8D0E94AE349B01AC0160E070E0E9
:104DB000CB010E94FF300E943B354B01B82EA92E3B
:104DC0009B01482F592FB801C1010E94D93187FF9B
:104DD00003C0302F212F04C0382D292D2B2C3A2C25
:104DE000832F922FD101E981FA81858B968BA78B36
:104DF000B08F94014B2D5A2D6F817B858F859B89B8
:104E00000E94D931181634F081E0A981BA819296B6
:104E10008C9303C0E981FA8112A281E0A981BA8151
:104E200091968C930B8D1C8D2D8D3E8D0093C10121
:104E30001093C2012093C3013093C4014092C50175
:104E40005092C6016092C7017092C801C092C90118
:104E5000D092CA01E092CB01F092CC018F819B8568
:104E6000AF85BB898093CD019093CE01A093CF01F4
:104E7000B093D0018091D1018093D3018091D3016F
:104E80008F5F823109F480E08093D1014BA45CA450
:104E90006DA47EA44092B5015092B6016092B70114
:104EA0007092B801EFA4F8A809A91AA9E092B90173
:104EB000F092BA010093BB011093BC014BA85CA80F
:104EC0006DA87EA84092BD015092BE016092BF01C4
:104ED0007092C001D3D8F5D9E6960FB6F894DEBF2C
:104EE0000FBECDBFDF91CF911F910F91FF90EF903B
:104EF000DF90CF90BF90AF909F908F907F906F90FA
:104F00005F904F903F902F904DCBE6960FB6F89460
:104F1000DEBF0FBECDBFDF91CF911F910F91FF90EC
:104F2000EF90DF90CF90BF90AF909F908F907F9049
:104F30006F905F904F903F902F900895EF92FF9267
:104F40000F931F936093B5017093B6018093B701DF
:104F50009093B8012093B9013093BA014093BB01FB
:104F60005093BC01E092BD01F092BE010093BF01DD
:104F70001093C0011F910F91FF90EF9008958F92B1
:104F80009F92AF92BF92CF92DF92EF92FF92CF9318
:104F9000DF936B017C01C091D2018BE3C89FE001DC
:104FA0001124CC52DE4FC701B6010E947B322D8DF9
:104FB0003E8D4F8D58A10E94AE344B015C016D8532
:104FC0007E858F8598890E947B329B01AC01C5014B
:104FD000B4010E94E0316D8F7E8F8F8F98A3CD86B4
:104FE000DE86EF86F88A1D8A1E8A1F8A188E198E21
:104FF0001A8E1B8E1C8E1AA281E089A33FD861D91C
:10500000DF91CF91FF90EF90DF90CF90BF90AF9066
:105010009F908F90C7CA6F927F928F929F92AF920C
:10502000BF92CF92DF92EF92FF920F931F93CF9395
:10503000DF937C018B016A01FB018081F701E80F9E
:10504000F11D2081EF012D3229F422962181772450
:10505000739407C02B3211F0219602C02296218151
:10506000712CF0E0E0E0612C60E070E0CB0130ED0D
:10507000B32EB20E29E02B15C0F0EF5FE93088F4B3
:10508000F1116A94A5E0B0E09B01AC010E94C33528
:10509000660F771F881F991F6B0D711D811D911D54
:1050A0000AC0F11108C0639406C02EEFB21205C009
:1050B000F11103C0F1E02991DACFEE2309F44AC0DF
:1050C0000E9479324B015C0120E030E0A9010E948E
:1050D000D931882361F18FEF68166CF42AE037ED3F
:1050E00043E25CE3C501B4010E94AE344B015C01B4
:1050F00063946394F0CF68120BC02DEC3CEC4CEC45
:105100005DE3C501B4010E94AE344B015C010FC0E8
:10511000662069F020E030E040E251E4C501B401CE
:105120000E94AE344B015C016A9416149CF3772004
:1051300021F0B7FAB094B7F8B094F601808291826A
:10514000A282B382CE19DF09C150F801C08381E089
:1051500090E002C080E090E0DF91CF911F910F912D
:10516000FF90EF90DF90CF90BF90AF909F908F9087
:105170007F906F900895009741F0EFE9FFE031973D
:10518000F1F700C000000197F6CF0895AF92BF92EB
:10519000CF92DF92EF92FF920F931F93CF93DF9303
:1051A00045E0A42E46E0B42EF501E080F1800281B6
:1051B000138151E0C52E56E0D52EF60120813181B4
:1051C00042815381CDEFD5E0688179818A819B81CD
:1051D000B5DEF501E080F18002811381F6012081C6
:1051E000318142815381688179818A819B810E94CA
:1051F0002709DF91CF911F910F91FF90EF90DF90E2
:10520000CF90BF90AF90089584B184B985B185B92E
:105210008091620683FF08C080916B0080936B00D1
:1052200080916800816007C080916B0080936B0063
:10523000809168008E7F8093680008951F920F927E
:105240000FB60F9211242F933F934F935F936F9359
:105250007F938F939F93AF93BF93EF93FF9380912F
:10526000FB05863059F08091FC0585FD07C00E9442
:10527000BE088091FC0580648093FC05FF91EF914E
:10528000BF91AF919F918F917F916F915F914F915E
:105290003F912F910F900FBE0F901F901895CF93B5
:1052A000DF93EC018991882319F00E947111FACFE4
:1052B000DF91CF910895CF93DF93FC018491EF01AB
:1052C0002196882321F00E947111FE01F7CFDF9112
:1052D000CF910895EF92FF920F931F93CF93DF9397
:1052E000CDB7DEB728970FB6F894DEBF0FBECDBF9F
:1052F000FE0131967F019E01275F3F4F982F9170ED
:1053000091938695E217F307C9F78F01F80182910F
:105310008F01805D0E9471110E151F05B9F7289647
:105320000FB6F894DEBF0FBECDBFDF91CF911F91B6
:105330000F91FF90EF9008958F929F92AF92BF923E
:10534000CF92DF92EF92FF92CF93DF93CDB7DEB78C
:105350002A970FB6F894DEBF0FBECDBF6B017C015C
:1053600097FF0BC08DE20E947111F094E094D094ED
:10537000C094C11CD11CE11CF11CC701B601C114B1
:10538000D104E104F10499F480E32A960FB6F8946D
:10539000DEBF0FBECDBFDF91CF91FF90EF90DF90CA
:1053A000CF90BF90AF909F908F900C94711120E0A0
:1053B0004AE0842E912CA12CB12CDD24D394D20E62
:1053C000EE24E394F12CEC0EFD1EE20EF11CA5017F
:1053D00094010E949B35605DF7016083B901CA01A9
:1053E000611571058105910511F02D2DE6CFDD20A8
:1053F00041F0FE01ED0DF11D80810E947111DA94E2
:10540000F6CF2A960FB6F894DEBF0FBECDBFDF9160
:10541000CF91FF90EF90DF90CF90BF90AF909F9093
:105420008F9008958F929F92AF92BF92CF92DF920A
:10543000EF92FF920F931F93CF93DF93CDB7DEB719
:105440002A970FB6F894DEBF0FBECDBF6B017C016B
:1054500020E030E0A901ADD787FF07C08DE20E94B0
:105460007111F7FAF094F7F8F09410917306012F88
:10547000023060F020E030E048EC52E4C701B601B1
:105480000E94AE346B017C010250F2CF10FF0AC0C3
:1054900020E030E040E251E4C701B6010E94AE34A2
:1054A0006B017C0120E030E040E05FE3C701B60122
:1054B000A7D6EED7E1E0F0E0EC0FFD1FE10FF11D04
:1054C0002EE22083D12CEAE08E2E912CA12CB12C3F
:1054D0006115710581059105A9F0D11201C0D39420
:1054E000EE24E394F12CEC0EFD1EED0CF11CA50155
:1054F00094010E949B35605DF7016083B901CA0188
:10550000D394E6CF80E3D11648F4E1E0F0E0EC0F6D
:10551000FD1FED0DF11D8083D394F5CF8D2DD1129C
:105520000BC0D394D3948F5FE1E0F0E0EC0FFD1F4C
:10553000E80FF11D80E38083DD2041F0FE01ED0DD9
:10554000F11D80810E947111DA94F6CF2A960FB670
:10555000F894DEBF0FBECDBFDF91CF911F910F91A9
:10556000FF90EF90DF90CF90BF90AF909F908F9083
:105570000895292F33272230310559F02330310582
:1055800069F021303105F9F482E190E026EA38E053
:105590001EC08EE390E028E638E019C099278130DC
:1055A000910541F08230910541F0892B61F4E4E6E8
:1055B000F8E005C0EAE4F8E002C0ECE2F8E084912B
:1055C00090E09F0104C080E090E020E030E0FA012C
:1055D000318320830895982F973058F59093E900F0
:1055E000981739F07091EC002091ED005091F00087
:1055F00003C0242F762F50E021FF19C03091EB001B
:105600003E7F3093EB003091ED003D7F3093ED0015
:105610003091EB0031603093EB007093EC002093FD
:10562000ED005093F0002091EE0027FF07C09F5F30
:10563000D3CF8F708093E90081E0089580E00895D2
:105640000F931F93CF93DF93062FEC0110E01017F9
:1056500071F19881992341F12C81E981FA817B8153
:10566000892F8F70873010F080E022C0223010F038
:1056700056E001C052E028E030E040E02E173F073E
:1056800020F44F5F220F331FF9CF4295407F452B07
:10569000692F661F6627661F90E4799F9001112489
:1056A000622B99DF882301F31F5F2596D0CF81E01D
:1056B000DF91CF911F910F91089580917A0687FD18
:1056C00005C08091E80080FF0EC012C08091E80004
:1056D00082FD05C0809179068111F8CF08958091EF
:1056E000E8008B7708C0809179068111EACF089590
:1056F0008091E8008E778093E80008958091E4001F
:105700009091E50045E62091EC0020FF21C020911A
:10571000E80020FD21C020917906222389F0253060
:1057200089F02091EB0025FD0FC02091E40030911D
:10573000E5002817390739F3415041F0C901E3CF9B
:1057400082E0089583E0089581E0089584E008955B
:105750002091E80022FFDFCF80E008950F931F9390
:10576000CF93DF934BD052D0C8EDD0E088818F77B4
:10577000888388818068888388818F7D888319BC2D
:10578000109279061092750610927706109276069E
:1057900000EE10E0F80180818B7F8083888181603A
:1057A000888342E060E080E016DFE1EEF0E0808197
:1057B0008E7F8083E2EEF0E0808181608083808153
:1057C00088608083F80180818E7F808388818061FA
:1057D0008883DF91CF911F910F910895E8EDF0E05C
:1057E00080818F7E8083E7EDF0E08081816080831F
:1057F00084E082BF81E080937806B0CFE8EDF0E0EE
:1058000080818E7F80831092E20008951092DA00EA
:105810001092E10008951F920F920FB60F9211247B
:105820002F933F934F935F936F937F938F939F93A8
:10583000AF93BF93EF93FF938091E10082FF0AC083
:105840008091E20082FF06C08091E1008B7F80930F
:10585000E100E8D28091DA0080FF1DC08091D8007D
:1058600080FF19C08091DA008E7F8093DA008091EA
:10587000D90080FF0CC080E189BD82E189BD09B4F7
:1058800000FEFDCF81E080937906CCD204C019BC24
:1058900010927906C7D28091E10080FF18C08091F4
:1058A000E20080FF14C08091E2008E7F8093E200CE
:1058B0008091E20080618093E2008091D800806254
:1058C0008093D80019BC85E080937906ABD2809193
:1058D000E10084FF2DC08091E20084FF29C080E1B7
:1058E00089BD82E189BD09B400FEFDCF8091D80059
:1058F0008F7D8093D8008091E1008F7E8093E100BE
:105900008091E2008F7E8093E2008091E2008160CE
:105910008093E20080917506811104C08091E300BC
:1059200087FF02C084E001C081E0809379067AD2CB
:105930008091E10083FF27C08091E20083FF23C0B4
:105940008091E100877F8093E10082E08093790677
:10595000109275068091E1008E7F8093E100809126
:10596000E2008E7F8093E2008091E200806180936C
:10597000E20042E060E080E02EDE8091F00088608E
:105980008093F0004FD2FF91EF91BF91AF919F9123
:105990008F917F916F915F914F913F912F910F90D8
:1059A0000FBE0F901F9018951F920F920FB60F9277
:1059B00011242F933F934F935F936F937F938F9314
:1059C0009F93AF93BF93CF93EF93FF93C091E90061
:1059D000CF708091EC001092E9008091F000877FF9
:1059E0008093F0007894D4D01092E9008091F00078
:1059F00088608093F000C093E900FF91EF91CF9110
:105A0000BF91AF919F918F917F916F915F914F91D6
:105A10003F912F910F900FBE0F901F9018952091DE
:105A20008006309181062617370748F06115710509
:105A300039F42091E8002E772093E80001C0B901E5
:105A4000FC0120E061157105A9F180917906882398
:105A5000E9F18530E9F18091E80083FD35C080915E
:105A6000E80082FF06C08091E80082FF26C080E047
:105A700008958091E80080FFE5CF2091F3008091A8
:105A8000F20090E0922B6115710551F0883091057C
:105A900038F421912093F100615071090196F3CF00
:105AA00021E0089709F020E08091E8008E7780934C
:105AB000E800C8CF2111C9CFD6CF809179068823BD
:105AC00029F0853081F604C081E0089582E00895D0
:105AD00083E00895209180063091810626173707CC
